:020000040800F2
:1000000000280020991900089102000893020008B6
:1000100095020008970200089902000800000000FD
:100020000000000000000000000000009B0200082B
:100030009D020008000000009F020008A1020008C5
:10004000E1190008E1190008E1190008E1190008A8
:10005000E1190008E1190008E1190008E119000898
:10006000E1190008E1190008E1190008E119000888
:10007000E1190008E1190008E1190008E119000878
:10008000E1190008E1190008E1190008E119000868
:10009000E11900080000000000000000E11900085C
:1000A0000000000000000000000000000000000050
:1000B000E1190008E1190008E1190008E119000838
:1000C000E1190008E1190008E1190008E119000828
:1000D000E1190008E1190008E1190008E119000818
:1000E000E1190008E1190008E1190008000000000A
:1000F0000000000000000000000000000000000000
:0C01000000000000000000005FF808F1A3
:10010C0010B5054C237833B9044B13B10448AFF345
:10011C0000800123237010BD280000200000000087
:10012C003C1A000808B5034B1BB103490348AFF355
:10013C00008008BD000000002C0000203C1A0008C4
:10014C0072B6FEE700B591B02822002106A801F096
:10015C0067FC0023019302930393049305930223FA
:10016C00069301230A9310230B9306A800F02CF995
:10017C0068B90F2301930021029103910491059119
:10018C0001A800F061FB20B911B05DF804FBFFF78A
:10019C00D7FFFFF7D5FF000008B500F0C7F8FFF751
:1001AC00D1FF00F017F800F0A1FD01F033F901F0D8
:1001BC0038F91023064A0021084601F0A5F94FF43E
:1001CC007A7000F0D7F801F02CF901F0B9F9FCE7DE
:1001DC00541A00082DE9F04188B0002404940594C9
:1001EC0006940794244B9A6942F020029A619A690A
:1001FC0002F020020192019A9A6942F004029A617B
:10020C009A6902F004020292029A9A6942F0080278
:10021C009A619B6903F008030393039B174E012219
:10022C000F21304600F0F3FC154F224602213846D0
:10023C0000F0EDFC0F2304930125059506954FF076
:10024C000208CDF81C8004A9304600F0C9FBF0234D
:10025C0004930594069504A9304600F0C1FBCDF833
:10026C001080059506940323079304A9384600F0E3
:10027C00B7FB08B0BDE8F081001002400008014057
:10028C00000C0140FEE7FEE7FEE7FEE7FEE77047E5
:10029C007047704708B500F05BF808BD82B00E4B94
:1002AC009A6942F001029A619A6902F00102009285
:1002BC00009ADA6942F08052DA61DB6903F080530C
:1002CC000193019B054A536823F0E06343F00073EC
:1002DC00536002B0704700BF0010024000000140A4
:1002EC0010B504460E4B18784FF47A73B3FBF0F349
:1002FC000C4A1068B0FBF3F000F0E2FC68B90F2C6C
:10030C0001D901200AE0002221464FF0FF3000F015
:10031C009FFC054B1C60002000E0012010BD00BFBD
:10032C0000000020080000200400002008B5074A47
:10033C00136843F010031360032000F077FC0F20C8
:10034C00FFF7CEFFFFF7AAFF002008BD00200240F8
:10035C00034A1168034B1B780B441360704700BFB2
:10036C004400002000000020014B1868704700BFBB
:10037C004400002038B50446FFF7F6FF0546B4F1FB
:10038C00FF3F02D0044B1B781C44FFF7EDFF401BD2
:10039C00A042FAD338BD00BF0000002082B0084B49
:1003AC001B68084AA2FB03235B0A00FB03F30193BF
:1003BC0000BF019B5A1E0192002BF9D102B070476D
:1003CC0008000020D34D6210002800F0F18170B5B8
:1003DC0082B00446036813F0010F2CD0994B5B6874
:1003EC0003F00C03042B1DD0964B5B6803F00C033D
:1003FC00082B12D06368B3F5803F41D0002B55D148
:10040C0003F1804303F504331A6822F480321A6036
:10041C001A6822F480221A6037E08A4B5B6813F466
:10042C00803FE7D0874B1B6813F4003F03D0636811
:10043C00002B00F0BF81236813F0020F75D0814BA5
:10044C005B6813F00C0F5FD07E4B5B6803F00C0302
:10045C00082B54D02369002B00F08A807A4B0122A0
:10046C001A60FFF781FF0546764B1B6813F0020FED
:10047C0075D1FFF779FF401B0228F5D903209EE1C7
:10048C00704A136843F480331360636843B3FFF717
:10049C006BFF05466B4B1B6813F4003FCBD1FFF78A
:1004AC0063FF401B6428F5D9032088E1B3F5A02F26
:1004BC0009D0644B1A6822F480321A601A6822F44C
:1004CC0080221A60E1E703F18043A3F53C331A68FC
:1004DC0042F480221A601A6842F480321A60D4E71F
:1004EC00FFF742FF0546574B1B6813F4003FA2D0A1
:1004FC00FFF73AFF401B6428F5D903205FE1514B0D
:10050C005B6813F4803FA5D14E4B1B6813F0020FB0
:10051C0003D02369012B40F04F814A4A136823F022
:10052C00F803616943EAC1031360236813F0080FF1
:10053C0033D0A369002B5CD0434B0122C3F8802439
:10054C00FFF712FF05463F4B5B6A13F0020F21D1F8
:10055C00FFF70AFF401B0228F5D903202FE1394A87
:10056C00136823F0F803616943EAC1031360DCE705
:10057C00354B00221A60FFF7F7FE0546314B1B681E
:10058C0013F0020FD1D0FFF7EFFE401B0228F5D974
:10059C00032014E10120FFF701FF236813F0040F7F
:1005AC0000F09680274BDB6913F0805F34D1254B2C
:1005BC00DA6942F08052DA61DB6903F0805301930F
:1005CC00019B0125214B1B6813F4807F26D0E36827
:1005DC00012B3DD0002B53D103F1804303F50433A1
:1005EC001A6A22F001021A621A6A22F004021A62D2
:1005FC0033E0154B0022C3F88024FFF7B5FE054607
:10060C00104B5B6A13F0020FC7D0FFF7ADFE401B17
:10061C000228F5D90320D2E00025D3E70B4A136852
:10062C0043F480731360FFF79FFE0646074B1B686D
:10063C0013F4807FCBD1FFF797FE801B6428F5D98C
:10064C000320BCE000100240000042420070004059
:10065C005F4A136A43F001031362E36833B3FFF795
:10066C0083FE06465A4B1B6A13F0020F2FD1FFF77D
:10067C007BFE801B41F288339842F3D903209EE025
:10068C00052B09D0524B1A6A22F001021A621A6A1F
:10069C0022F004021A62E0E74D4B1A6A42F004029F
:1006AC001A621A6A42F001021A62D6E7FFF75CFE80
:1006BC000646474B1B6A13F0020F08D0FFF754FE97
:1006CC00801B41F288339842F3D9032077E0E5B9D7
:1006DC00E369002B72D03E4A526802F00C02082AE1
:1006EC0056D0022B17D03B4B00221A66FFF73CFE6C
:1006FC000446374B1B6813F0007F47D0FFF734FEDE
:10070C00001B0228F5D9032059E0314AD36923F0A4
:10071C008053D361DCE72F4B00221A66FFF724FECF
:10072C0005462B4B1B6813F0007F06D0FFF71CFE11
:10073C00401B0228F5D9032041E0236AB3F5803F22
:10074C001AD023494B6823F47413226A606A02435B
:10075C0013434B601F4B01221A66FFF705FE04463C
:10076C001B4B1B6813F0007F0ED1FFF7FDFD001B28
:10077C000228F5D9032022E0154A536823F40033EC
:10078C00A1680B435360DCE7002018E0002016E062
:10079C00012B16D00E4B5B6803F48031226A914218
:1007AC0011D103F47013626A93420ED1002006E05B
:1007BC0001207047012002E0012000E0002002B07F
:1007CC0070BD0120FBE70120F9E70120F7E700BF2E
:1007DC00001002400000424286B0174B0FCB0DF1C7
:1007EC00180C0CE90F0040F20123ADF80430134B48
:1007FC005B6803F00C02082A02D0114806B070475F
:10080C00C3F3834218326A4412F8100C13F4803F7D
:10081C000DD00A4B5B68C3F3404318336B4413F899
:10082C00143C074A02FB00F0B0FBF3F0E6E7054B83
:10083C0003FB00F0E2E700BF5C1A00080010024066
:10084C0000127A0000093D00002800F0A08070B56D
:10085C000D460446524B1B6803F007038B420BD228
:10086C004F4A136823F007030B431360136803F01C
:10087C0007038B4240F08D80236813F0020F17D0D2
:10088C0013F0040F04D0474A536843F4E0635360F9
:10089C00236813F0080F04D0424A536843F46053A2
:1008AC005360404A536823F0F003A1680B43536034
:1008BC00236813F0010F31D06368012B20D0022B79
:1008CC0025D0384A126812F0020F64D035494A68B4
:1008DC0022F0030213434B60FFF746FD0646314BF3
:1008EC005B6803F00C036268B3EB820F16D0FFF762
:1008FC003BFD801B41F288339842F0D9032045E040
:10090C00284A126812F4003FE0D101203EE0254A4B
:10091C00126812F0007FD9D1012037E0204B1B6800
:10092C0003F00703AB420AD91D4A136823F00703EF
:10093C002B431360136803F00703AB422DD12368DC
:10094C0013F0040F06D0174A536823F4E063E168F0
:10095C000B435360236813F0080F07D0114A5368F8
:10096C0023F46053216943EAC1035360FFF734FF5A
:10097C000C4B5B68C3F303130B4AD35CD8400B4B93
:10098C0018600B4B1868FFF7ABFC002070BD012002
:10099C0070470120FAE70120F8E70120F6E700BFD5
:1009AC000020024000100240701A000808000020CD
:1009BC0004000020014B1868704700BF080000209D
:1009CC0008B5FFF7F7FF044B5B68C3F30223034A38
:1009DC00D35CD84008BD00BF00100240801A00084C
:1009EC0070B582B00024A4468BE07F4DAA4210D093
:1009FC0007D97E4DAA420CD005F58035AA4208D005
:100A0C0015E0A5F58015AA4203D005F57025AA427C
:100A1C0009D18A68002A00F0BF80012A00F0B78053
:100A2C004361082403E0A5F58015AA42F1D0BEF17C
:100A3C00FF0F00F2B3800646BEF1FF0F00F2B0804C
:100A4C004FEA8C0233680F25954023EA050304FA1C
:100A5C0002F2134333604B6813F0805F4FD0644B4A
:100A6C009A6942F001029A619B6903F001030193B8
:100A7C00019B4FEA9C02951C5E4B53F825600CF0D1
:100A8C0003039D000F23AB4026EA03065A4B984202
:100A9C0000F08C8003F58063984200F0898003F5A8
:100AAC008063984200F080800323AB4033430232D2
:100ABC00504D45F822304B6813F4803F7AD04F4AA2
:100ACC00136843EA0E0313604B6813F4003F77D0AE
:100ADC004A4A536843EA0E0353604B6813F4801F71
:100AEC0074D0464A936843EA0E0393604B6813F440
:100AFC00001F71D0414AD36843EA0E03D3600CF156
:100B0C00010C0A6832FA0CF36CD0012303FA0CF3D3
:100B1C0002EA030E33EA0202F1D14A68122A3FF6C6
:100B2C0064AF122A83D801A555F822F01F0A0008D9
:100B3C00850B00088F0B0008A10B00083B0A00086E
:100B4C003B0A00083B0A00083B0A00083B0A000865
:100B5C003B0A00083B0A00083B0A00083B0A000855
:100B6C003B0A00083B0A00083B0A00083B0A000845
:100B7C00890B0008950B0008CC6858E7CC68043446
:100B8C0055E7CC68083452E7CC680C344FE7036166
:100B9C0008244CE700244AE7042448E7061D4BE7E9
:100BAC00ACF1080292004DE702237EE700237CE7BC
:100BBC0001237AE7114A136823EA0E03136083E7D3
:100BCC000E4A536823EA0E03536086E70B4A936878
:100BDC0023EA0E03936089E7084AD36823EA0E03DD
:100BEC00D3608CE702B070BD000022100000311001
:100BFC0000100240000001400008014000040140C8
:100C0C008368194201D001207047002070470AB157
:100C1C0001617047090401617047C36801EA03026E
:100C2C0021EA030141EA024101617047074AD36896
:100C3C0023F4E0631B041B0C000200F4E06003438C
:100C4C0043F0BF6343F40033D360704700ED00E022
:100C5C0000B5194BDB68C3F30223C3F1070CBCF1DD
:100C6C00040F28BF4FF0040C03F1040EBEF1060F65
:100C7C0018D9033B4FF0FF3E0EFA0CFC21EA0C0195
:100C8C0099400EFA03F322EA0303194300280BDB05
:100C9C000901C9B200F1604000F5614080F8001311
:100CAC005DF804FB0023E5E700F00F000901C9B271
:100CBC00024B1954F4E700BF00ED00E014ED00E026
:100CCC000138B0F1807F0BD24FF0E0235861054A18
:100CDC00F02182F823100020986107221A617047D6
:100CEC000120704700ED00E07047000008B50B488C
:100CFC000B4B03600B4B436000238360C3604FF4CA
:100D0C008042026143618361C361036200F0AAF90E
:100D1C0000B908BDFFF714FAFBE700BF480000203C
:100D2C0000540040A086010010B586B00023029349
:100D3C000393049305930268114B9A4201D006B0B9
:100D4C0010BD104CA36943F00803A361A36903F021
:100D5C0008030093009BC0230293122303930323E5
:100D6C00059302A90848FFF73BFEE36943F400131F
:100D7C00E361E36903F400130193019BDFE700BF18
:100D8C000054004000100240000C014003685A69F6
:100D9C0012F4806F01D1002070476FF480625A61A9
:100DAC0000230363202280F83D2080F83E30026C43
:100DBC0042F00402026480F83C30012070472DE9B7
:100DCC00F04107460D4690461E4624E0FFF7CCFA4C
:100DDC00069BC01AB04200D8EEB900233B63202218
:100DEC0087F83D2087F83E303A6C42F020023A6496
:100DFC0087F83C3001201EE03B689C6925EA040C16
:100E0C001FFA8CFCBCFA8CFC4FEA5C1CE04511D13F
:100E1C00B6F1FF3FDAD1C5F30743012BECD13B68A8
:100E2C005B6925EA030C1FFA8CFCBCFA8CFC4FEABC
:100E3C005C1CEBE70020BDE8F0812DE9F041054694
:100E4C000E46174698463DE01A6842F400721A6046
:100E5C002B686FF480625A6100232B63202285F883
:100E6C003D2085F83E302A6C42F004022A6485F855
:100E7C003C30012034E0FFF777FAA0EB0800B842D1
:100E8C0000D8FFB900232B63202285F83D2085F87C
:100E9C003E302A6C42F020022A6485F83C30012056
:100EAC001EE02B689C6926EA0404A4B2003C18BF1F
:100EBC000124A4B12B685A6912F4806FC4D1B7F124
:100ECC00FF3FD8D1C6F30743012BEAD12B685C69ED
:100EDC0026EA0404A4B2003C18BF0124E9E7002070
:100EEC00BDE8F08170B504460D46164623685B6973
:100EFC0013F0800F1CD12046FFF748FFD0B9B5F195
:100F0C00FF3FF3D0FFF730FA801BA84201D8002D29
:100F1C00ECD100232363202284F83D2084F83E305A
:100F2C00226C42F02002226484F83C30012000E064
:100F3C00002070BD0120FCE72DE9F04385B004468C
:100F4C000D4691461F46DDF830800D9E03681968EA
:100F5C0041F4807119600096434600224FF0011154
:100F6C00FFF72DFF60B9236805F0FE051D613346C0
:100F7C00424626492046FFF760FF68B1012008E091
:100F8C0023681B6813F4807F02D04FF40073236432
:100F9C00032005B0BDE8F0830023039323685A694E
:100FAC0003929B690393039B324641462046FFF70D
:100FBC0099FF30B9012F0FD123685FFA89F61E61B2
:100FCC00E7E7236C042B01D00120E2E722681368C9
:100FDC0043F400731360F7E723684FEA19221A6190
:100FEC00324641462046FFF77DFF20B923685FFA61
:100FFC0089F61E61CDE7236C042B01D00120C8E7D4
:10100C002268136843F400731360F7E702000100D1
:10101C0070B504460D46164623685B6913F0040F41
:10102C001CD12046FFF7B2FED0B9B5F1FF3FF3D08B
:10103C00FFF79AF9801BA84201D8002DECD10023B0
:10104C002363202284F83D2084F83E30226C42F049
:10105C002002226484F83C30012000E0002070BDA6
:10106C000120FCE7002800F0CC8070B5044690F815
:10107C003D30002B77D0242384F83D302268136850
:10108C0023F0010313602268136843F400431360D8
:10109C002268136823F400431360FFF791FC626825
:1010AC005A4B9A4264D85A4B98428CBF0023012366
:1010BC00002B40F0A8805749A1FB00318B0C256810
:1010CC006A6822F03F0242EA91426A6021680A6A29
:1010DC0022F03F0266684D4DAE424FD801331343A8
:1010EC000B622168CA6922F44F4222F0FF02666843
:1010FC00464B9E424CD8431E7600B3FBF6F30133AD
:10110C0040F6FC70034278D0C3F30B031343CB615E
:10111C0021680B6823F0C003E269206A0243134381
:10112C000B6021688B6823F4034323F0FF032269CF
:10113C00E068024313438B602168CB6823F0FF0304
:10114C006269A06902431343CB602268136843F0C1
:10115C000103136000202064202384F83D302063B9
:10116C0084F83E0070BD80F83C30FFF7DDFD82E76F
:10117C00294B98428CBF0023012399E74FF49675B5
:10118C0005FB03F3254DA5FB03539B090133A6E790
:10119C00A368BBB9451E06EB460CB5FBFCF5013547
:1011AC00C5F30B05B5FA85F56D0945BBC3B9013817
:1011BC0006EB4603B0FBF3F30133C3F30B0343F429
:1011CC000043A3E7451E06EB860C0CEB8C0CB5FB21
:1011DC00FCF50135C5F30B05B5FA85F56D09E4E7AA
:1011EC00013806EB860303EB8303B0FBF3F3013307
:1011FC00C3F30B0343F4404388E7042386E701233E
:10120C0084E7012070470120ACE700BFA0860100F5
:10121C007F841E0083DE1B43FF083D00D34D62100C
:10122C002DE9F04383B004460F46904699460C9E38
:10123C00FFF79AF8054694F83D00C0B2202803D079
:10124C00022003B0BDE8F0830095192301224B491D
:10125C002046FFF7B4FD002840F0898094F83C301C
:10126C00012B00F08680012384F83C3023681A6837
:10127C0012F0010F03D11A6842F001021A602268C1
:10128C00136823F400631360212384F83D3040235A
:10129C0084F83E30002323640A9B6362BDF82C3033
:1012AC006385638D2385364BE362019500964B462F
:1012BC00424639462046FFF73FFE00285BD1238D7E
:1012CC00002B35D02A4631462046FFF70BFE20BBBB
:1012DC00626A236812781A61626A531C6362218DF8
:1012EC00013989B22185638D9BB2013B9BB2638529
:1012FC002368586910F0040FE1D00029DFD0527830
:10130C001A61636A01336362238D013B2385638D0C
:10131C009BB2013B9BB26385D1E7236C042B01D0BC
:10132C0001208EE72268136843F400731360F7E71B
:10133C002A4631462046FFF76BFE50B1236C042B36
:10134C0001D001207DE72268136843F40073136019
:10135C00F7E72268136843F400731360202384F8C2
:10136C003D30002384F83E3084F83C3069E702209D
:10137C0067E7022065E7012063E700BF0200100069
:10138C000000FFFF10B584B000240EE04FF4807312
:10139C00029301230193074A2244009200227821F0
:1013AC000548FFF73DFF0134E4B21A2CEED904B026
:1013BC0010BD00BF0C0000204800002000B587B015
:1013CC008DF817004FF480730293012301930DF1F4
:1013DC0017020092002278210248FFF721FF07B084
:1013EC005DF804FB4800002000B587B08DF81700AD
:1013FC004FF480730293012301930DF117020092B5
:10140C00402278210248FFF70BFF07B05DF804FB80
:10141C004800002008B5C820FEF7ACFFFFF7B2FF6C
:10142C0008BD38B5002509E00020FFF7DDFF0134C9
:10143C00E4B214F0800FF7D00135EDB2072D0CD8C3
:10144C00A5F15000C0B2FFF7B9FF0020FFF7B6FFBF
:10145C001020FFF7B3FF0024EBE738BD10B50446AE
:10146C00A1F15000C0B2FFF7A9FF200940F0100015
:10147C00FFF7A4FF04F00F00FFF7A0FF10BD000062
:10148C00F8B507460E46203AD5B210F0800F07D1BA
:10149C00102B09D031463846FFF7E0FF00242DE031
:1014AC000236F6B20027F3E731463846FFF7D6FF8F
:1014BC00002407E004EB0513124AD05CFFF794FFFD
:1014CC000134E4B2072CF5D9711CC9B23846FFF7C8
:1014DC00C5FF002408E004EB05130833094AD05C6F
:1014EC00FFF782FF0134E4B2072CF4D908E004F1D1
:1014FC000F00C0B2FFF778FF0134E4B2052CF6D927
:10150C00F8BD00BF881A00082DE9F04104460E46CC
:10151C0017469846002501E00135EDB27A5D62B1BF
:10152C00434631462046FFF7ABFF0834E4B2782C33
:10153C00F2D90236F6B20024EEE7BDE8F0810000E5
:10154C0010B5C74C002208212046FFF760FB102184
:10155C002046FFF755FB002800F090802021C04862
:10156C00FFF74EFB002800F09F804021BC48FFF79E
:10157C0047FB002800F0AE808021B948FFF740FB04
:10158C00002800F0BD80B64C012208212046FFF750
:10159C003EFB002204212046FFF739FB1021204698
:1015AC00FFF72EFB002800F0C1802021AC48FFF78C
:1015BC0027FB002800F0D0804021A948FFF720FB32
:1015CC00002800F0DF808021A548FFF719FB0028D8
:1015DC0000F0EE80A24C012204212046FFF717FBFD
:1015EC00002202212046FFF712FB10212046FFF7B4
:1015FC0007FB002800F0F28020219948FFF700FB40
:10160C00002800F0018140219548FFF7F9FA0028E5
:10161C0000F0108180219248FFF7F2FA002800F0C8
:10162C0039818F4C012202212046FFF7F0FA00226B
:10163C0001212046FFF7EBFA10212046FFF7E0FAD4
:10164C00002800F03D8120218548FFF7D9FA0028B9
:10165C0000F04C8140218248FFF7D2FA002800F0BC
:10166C005B8180217E48FFF7CBFA002800F06A816D
:10167C00012211467A48FFF7CAFA10BDFFF7D1FED6
:10168C001420FEF777FE1023764A04212720FFF75B
:10169C003BFF02217448FFF7C0FA10217048FFF796
:1016AC00AFFA0028F9D059E7FFF7BBFE1420FEF77C
:1016BC0061FE10236D4A04212720FFF725FF02212C
:1016CC006948FFF7AAFA20216548FFF799FA002824
:1016DC00F9D04AE7FFF7A5FE1420FEF74BFE1023C6
:1016EC00634A04212720FFF70FFF02215E48FFF712
:1016FC0094FA40215A48FFF783FA0028F9D03BE7C7
:10170C00FFF78FFE1420FEF735FE1023594A0421F3
:10171C002720FFF7F9FE02215348FFF77EFA8021BC
:10172C004F48FFF76DFA0028F9D02CE7FFF779FE48
:10173C001420FEF71FFE10234F4A04212720FFF729
:10174C00E3FE02214848FFF768FA10214448FFF7EE
:10175C0057FA0028F9D028E7FFF763FE1420FEF7AC
:10176C0009FE1023454A04212720FFF7CDFE022154
:10177C003D48FFF752FA20213948FFF741FA00287B
:10178C00F9D019E7FFF74DFE1420FEF7F3FD1023F7
:10179C003B4A04212720FFF7B7FE02213248FFF70E
:1017AC003CFA40212E48FFF72BFA0028F9D00AE723
:1017BC00FFF737FE1420FEF7DDFD1023314A04211C
:1017CC002720FFF7A1FE02212748FFF726FA8021E8
:1017DC002348FFF715FA0028F9D0FBE6FFF721FEA6
:1017EC001420FEF7C7FD1023274A04212720FFF7FA
:1017FC008BFE02211C48FFF710FA10211848FFF746
:10180C00FFF90028F9D0F7E6FFF70BFE1420FEF7DE
:10181C00B1FD10231D4A04212720FFF775FE02217C
:10182C001148FFF7FAF920210D48FFF7E9F90028D4
:10183C00F9D0E8E6FFF7F5FD1420FEF79BFD102329
:10184C00134A04212720FFF75FFE02210648FFF709
:10185C00E4F940210248FFF7D3F90028F9D0D9E682
:10186C000008014068200008000C014070200008AE
:10187C0078200008802000088820000890200008AC
:10188C0098200008A0200008A8200008B02000081C
:10189C00B8200008FFF7C5FD1420FEF76BFD1023E0
:1018AC00334A04212720FFF72FFE02213148FFF78E
:1018BC00B4F980213048FFF7A3F90028F9D0B0E63D
:1018CC00FFF7AFFD1420FEF755FD10232B4A042122
:1018DC002720FFF719FE02212648FFF79EF9102159
:1018EC002548FFF78DF90028F9D0ACE6FFF799FDF4
:1018FC001420FEF73FFD1023214A04212720FFF777
:10190C0003FE02211B48FFF788F920211A48FFF734
:10191C0077F90028F9D09DE6FFF783FD1420FEF738
:10192C0029FD1023174A04212720FFF7EDFD022182
:10193C001048FFF772F940210F48FFF761F90028B2
:10194C00F9D08EE6FFF76DFD1420FEF713FD102382
:10195C000D4A04212720FFF7D7FD02210548FFF788
:10196C005CF980210448FFF74BF90028F9D07FE699
:10197C00C0200008000C014000080140C8200008ED
:10198C00D0200008D8200008E02000080C480D49A1
:10199C000D4A002302E0D458C4500433C4188C42BE
:1019AC00F9D30A4A0A4C002301E013600432A24224
:1019BC00FBD3FFF799F900F00FF8FEF7EDFB70473A
:1019CC000000002028000020F02000082800002043
:1019DC009C000020FEE7000070B500260C4D0D4C5D
:1019EC00641BA410A64209D100F022F800260A4D6F
:1019FC000A4C641BA410A64205D170BD55F8043BDB
:101A0C0098470136EEE755F8043B98470136F2E764
:101A1C00E8200008E8200008E8200008EC20000876
:101A2C0003460244934200D1704703F8011BF9E7C7
:101A3C00F8B500BFF8BC08BC9E467047F8B500BFAF
:081A4C00F8BC08BC9E4670477F
:101A540048656C6C6F000000020304050607080962
:101A64000A0B0C0D0E0F1010000000000000000007
:101A7400000000000102030406070809000000003A
:101A84000102030400000000000000000000000048
:101A940000000000000000F8000000000000003317
:101AA4003000000000100C06100C060000000000BE
:101AB4000000000040C07840C0784000043F0404A7
:101AC4003F040400007088FC08300000001820FF68
:101AD400211E0000F008F000E018000000211C03A3
:101AE4001E211E0000F00888700000001E2123241F
:101AF4001927211010160E0000000000000000003D
:101B040000000000000000E01804020000000007CC
:101B14001820400000020418E000000000402018D3
:101B240007000000404080F0804040000202010FA6
:101B340001020200000000F0000000000101011F8A
:101B440001010100000000000000000080B07000EE
:101B5400000000000000000000000000000101017E
:101B6400010101010000000000000000003030000D
:101B740000000000000000008060180400601806E7
:101B84000100000000E010080810E000000F102021
:101B940020100F00001010F8000000000020203F6B
:101BA40020200000007008080888700000302824F5
:101BB4002221300000300888884830000018202096
:101BC40020110E000000C02010F8000000070424BB
:101BD400243F240000F80888880808000019212000
:101BE40020110E0000E0108888180000000F11205A
:101BF40020110E0000380808C83808000000003F13
:101C0400000000000070880808887000001C222171
:101C140021221C0000E010080810E000000031221E
:101C240022110F00000000C0C000000000000030BE
:101C34003000000000000080000000000000806010
:101C44000000000000008040201008000001020491
:101C54000810200040404040404040000404040478
:101C64000404040000081020408000000020100834
:101C740004020100007048080808F0000000003069
:101C840036010000C030C828E810E00007182724F7
:101C940023140B000000C038E0000000203C2302A5
:101CA4000227382008F8888888700000203F202008
:101CB40020110E00C030080808083800071820203A
:101CC4002010080008F808080810E000203F202031
:101CD40020100F0008F88888E8081000203F202012
:101CE4002320180008F88888E8081000203F200006
:101CF40003000000C030080808380000071820203E
:101D0400221E020008F808000008F808203F2101FC
:101D140001213F20000808F8080800000020203FA7
:101D24002020000000000808F8080800C080808017
:101D34007F00000008F888C028180800203F200110
:101D44002638200008F8080000000000203F20206A
:101D54002020300008F8F800F8F80800203F003F81
:101D6400003F200008F830C00008F808203F200099
:101D740007183F00E01008080810E0000F102020AA
:101D840020100F0008F808080808F000203F21017F
:101D940001010000E01008080810E0000F182424D6
:101DA40038504F0008F8888888887000203F200049
:101DB400030C3020007088080808380000382021FF
:101DC40021221C00180808F8080818000000203F09
:101DD4002000000008F808000008F808001F202070
:101DE40020201F000878880000C838080000073841
:101DF4000E010000F80800F80008F800033C070092
:101E0400073C0300081868808068180820302C03F9
:101E1400032C30200838C800C83808000000203FD0
:101E24002000000010080808C838080020382621BF
:101E340020201800000000FE020202000000007FC3
:101E440040404000000C30C00000000000000001D1
:101E54000638C00000020202FE00000000404040BC
:101E64007F000000000004020202040000000000E1
:101E7400000000000000000000000000808080805E
:101E84008080808000020204000000000000000046
:101E940000000000000080808080000000192422DF
:101EA40022223F2008F8008080000000003F11201B
:101EB40020110E000000008080800000000E112020
:101EC40020201100000000808088F800000E1120FE
:101ED40020103F200000808080800000001F22220C
:101EE40022221300008080F0888888180020203F78
:101EF400202000000000808080808000006B94948B
:101F04009493600008F8008080800000203F210046
:101F140000203F2000809898000000000020203F0F
:101F240020200000000000809898000000C08080FD
:101F3400807F000008F8000080808000203F240299
:101F44002D302000000808F8000000000020203F89
:101F5400202000008080808080808000203F20003E
:101F64003F20003F8080008080800000203F2100CF
:101F740000203F200000808080800000001F20207F
:101F840020201F00808000808000000080FFA120AE
:101F940020110E000000008080808000000E1120BF
:101FA40020A0FF80808080008080800020203F214E
:101FB4002000010000008080808080000033242401
:101FC40024241900008080E0808000000000001FAD
:101FD400202000008080000000808000001F20205E
:101FE40020103F20808080000080808000010E301F
:101FF4000806010080800080008080800F300C0380
:102004000C300F0000808000808080000020312E82
:102014000E312000808080000080808080818E705E
:102024001806010000808080808080000021302C10
:102034002221300000000000807C02020000000029
:10204400003F40400002027C800000000040403F0E
:102054000000000000000000FF000000000000007D
:10206400FF00000028312C312900000028322C31D7
:102074002900000028332C312900000028342C3199
:102084002900000028312C322900000028322C328B
:102094002900000028332C322900000028342C3277
:1020A4002900000028312C332900000028322C3369
:1020B4002900000028332C332900000028342C3355
:1020C4002900000028312C342900000028322C3447
:1020D4002900000028332C342900000028342C3433
:0420E40029000000CF
:0420E80031010008BA
:0420EC000D010008DA
:1020F00001000000100000000024F400AE001040B9
:10210000B081FFA1A6A83FC8D300D580D805D9F1DA
:08211000DA12D8308D14AF0083
:04000005080019993D
:00000001FF
