:020000040800F2
:1000000000280020BD1D00080503000807030008A4
:10001000090300080B0300080D030008000000009E
:100020000000000000000000000000000F030008B6
:100030001103000800000000130300081503000866
:10004000051E0008051E0008051E0008051E000804
:10005000051E0008051E0008051E0008051E0008F4
:10006000051E0008051E0008051E0008051E0008E4
:10007000051E0008051E0008051E0008051E0008D4
:10008000051E0008051E0008051E0008051E0008C4
:10009000051E00080000000000000000051E00080A
:1000A0000000000000000000000000000000000050
:1000B000051E0008051E0008051E0008051E000894
:1000C000051E0008051E0008051E0008051E000884
:1000D000051E0008051E0008051E0008051E000874
:1000E000051E0008051E0008051E0008000000008F
:1000F0000000000000000000000000000000000000
:0C01000000000000000000005FF808F1A3
:10010C0010B5054C237833B9044B13B10448AFF345
:10011C0000800123237010BD8C0000200000000023
:10012C007027000808B5034B1BB103490348AFF314
:10013C00008008BD0000000090000020702700081F
:10014C00034613F8012B002AFBD1181A013870470B
:10015C0072B6FEE700B591B02822002106A801F086
:10016C0071FE0023019302930393049305930122E0
:10017C0006924FF4803307930A9202220D920E934B
:10018C004FF400230F9306A800F058F988B90F23F9
:10019C00019302230293002303934FF48062049291
:1001AC000593012101A800F089FB20B911B05DF87D
:1001BC0004FBFFF7CDFFFFF7CBFF000000B583B0CA
:1001CC0000F0EEF8FFF7C6FF00F03EF800F0D8FDA7
:1001DC0001F060FC01F068F901F06DF91023154A8B
:1001EC000021084601F0DAF94FF47A7000F0FCF8BF
:1001FC0001F061F9104B1B88ADF8043000238DF829
:10020C0006300EE09DF805200C4801F099FC002307
:10021C008DF804304FF0FF3304220949094801F0EE
:10022C005AFD01A801F0D6F99DF804100029E9D176
:10023C00F0E700BF8C2700088827000894270008E7
:10024C00A0270008000100202DE9F04188B000240F
:10025C000494059406940794244B9A6942F0200266
:10026C009A619A6902F020020192019A9A6942F00D
:10027C0004029A619A6902F004020292029A9A6943
:10028C0042F008029A619B6903F008030393039BF5
:10029C00174E01220F21304600F003FD154F224668
:1002AC000221384600F0FDFC0F230493012505952F
:1002BC0006954FF00208CDF81C8004A9304600F0DA
:1002CC00D9FBF02304930594069504A9304600F05D
:1002DC00D1FBCDF81080059506940323079304A950
:1002EC00384600F0C7FB08B0BDE8F08100100240B2
:1002FC0000080140000C0140FEE7FEE7FEE7FEE7C8
:10030C00FEE770477047704708B500F05BF808BD12
:10031C0082B00E4B9A6942F001029A619A6902F01E
:10032C0001020092009ADA6942F08052DA61DB69CC
:10033C0003F080530193019B054A536823F0E0635B
:10034C0043F00073536002B0704700BF00100240CE
:10035C000000014010B504460E4B18784FF47A7328
:10036C00B3FBF0F30C4A1068B0FBF3F000F0F2FCB6
:10037C0068B90F2C01D901200AE0002221464FF068
:10038C00FF3000F0AFFC054B1C60002000E00120AA
:10039C0010BD00BF00000020080000200400002059
:1003AC0008B5074A136843F010031360032000F0EC
:1003BC0087FC0F20FFF7CEFFFFF7AAFF002008BD38
:1003CC0000200240034A1168034B1B780B44136056
:1003DC00704700BFA800002000000020014B1868E7
:1003EC00704700BFA800002038B50446FFF7F6FFA1
:1003FC000546B4F1FF3F02D0044B1B781C44FFF7B9
:10040C00EDFF401BA042FAD338BD00BF0000002016
:10041C0082B0084B1B68084AA2FB03235B0A00FB53
:10042C0003F3019300BF019B5A1E0192002BF9D1DB
:10043C0002B0704708000020D34D6210002800F075
:10044C00F18170B582B00446036813F0010F2CD013
:10045C00994B5B6803F00C03042B1DD0964B5B6827
:10046C0003F00C03082B12D06368B3F5803F41D026
:10047C00002B55D103F1804303F504331A6822F4A1
:10048C0080321A601A6822F480221A6037E08A4B94
:10049C005B6813F4803FE7D0874B1B6813F4003F75
:1004AC0003D06368002B00F0BF81236813F0020FA8
:1004BC0075D0814B5B6813F00C0F5FD07E4B5B6883
:1004CC0003F00C03082B54D02369002B00F08A8016
:1004DC007A4B01221A60FFF781FF0546764B1B68A9
:1004EC0013F0020F75D1FFF779FF401B0228F5D9E5
:1004FC0003209EE1704A136843F4803313606368F1
:10050C0043B3FFF76BFF05466B4B1B6813F4003FBF
:10051C00CBD1FFF763FF401B6428F5D9032088E19A
:10052C00B3F5A02F09D0644B1A6822F480321A60FC
:10053C001A6822F480221A60E1E703F18043A3F5E4
:10054C003C331A6842F480221A601A6842F48032F2
:10055C001A60D4E7FFF742FF0546574B1B6813F4AC
:10056C00003FA2D0FFF73AFF401B6428F5D90320C7
:10057C005FE1514B5B6813F4803FA5D14E4B1B6878
:10058C0013F0020F03D02369012B40F04F814A4A2C
:10059C00136823F0F803616943EAC103136023680D
:1005AC0013F0080F33D0A369002B5CD0434B01220E
:1005BC00C3F88024FFF712FF05463F4B5B6A13F02C
:1005CC00020F21D1FFF70AFF401B0228F5D90320A7
:1005DC002FE1394A136823F0F803616943EAC10338
:1005EC001360DCE7354B00221A60FFF7F7FE054677
:1005FC00314B1B6813F0020FD1D0FFF7EFFE401BFD
:10060C000228F5D9032014E10120FFF701FF23682C
:10061C0013F0040F00F09680274BDB6913F0805F1A
:10062C0034D1254BDA6942F08052DA61DB6903F090
:10063C0080530193019B0125214B1B6813F4807F90
:10064C0026D0E368012B3DD0002B53D103F180431E
:10065C0003F504331A6A22F001021A621A6A22F0B4
:10066C0004021A6233E0154B0022C3F88024FFF712
:10067C00B5FE0546104B5B6A13F0020FC7D0FFF7AF
:10068C00ADFE401B0228F5D90320D2E00025D3E7AC
:10069C000B4A136843F480731360FFF79FFE064602
:1006AC00074B1B6813F4807FCBD1FFF797FE801BA1
:1006BC006428F5D90320BCE000100240000042423F
:1006CC00007000405F4A136A43F001031362E36851
:1006DC0033B3FFF783FE06465A4B1B6A13F0020F27
:1006EC002FD1FFF77BFE801B41F288339842F3D960
:1006FC0003209EE0052B09D0524B1A6A22F001020E
:10070C001A621A6A22F004021A62E0E74D4B1A6A66
:10071C0042F004021A621A6A42F001021A62D6E727
:10072C00FFF75CFE0646474B1B6A13F0020F08D01E
:10073C00FFF754FE801B41F288339842F3D9032013
:10074C0077E0E5B9E369002B72D03E4A526802F0BB
:10075C000C02082A56D0022B17D03B4B00221A66EB
:10076C00FFF73CFE0446374B1B6813F0007F47D065
:10077C00FFF734FE001B0228F5D9032059E0314A5B
:10078C00D36923F08053D361DCE72F4B00221A6628
:10079C00FFF724FE05462B4B1B6813F0007F06D099
:1007AC00FFF71CFE401B0228F5D9032041E0236A09
:1007BC00B3F5803F1AD023494B6823F47413226A93
:1007CC00606A024313434B601F4B01221A66FFF70A
:1007DC0005FE04461B4B1B6813F0007F0ED1FFF780
:1007EC00FDFD001B0228F5D9032022E0154A5368B1
:1007FC0023F40033A1680B435360DCE7002018E0BE
:10080C00002016E0012B16D00E4B5B6803F48031F0
:10081C00226A914211D103F47013626A93420ED191
:10082C00002006E001207047012002E0012000E0DA
:10083C00002002B070BD0120FBE70120F9E7012088
:10084C00F7E700BF001002400000424286B0174B91
:10085C000FCB0DF1180C0CE90F0040F20123ADF891
:10086C000430134B5B6803F00C02082A02D01148C9
:10087C0006B07047C3F3834218326A4412F8100C66
:10088C0013F4803F0DD00A4B5B68C3F3404318331D
:10089C006B4413F8143C074A02FB00F0B0FBF3F076
:1008AC00E6E7054B03FB00F0E2E700BFA8270008D2
:1008BC000010024000127A0000093D00002800F0F0
:1008CC00A08070B50D460446524B1B6803F007031D
:1008DC008B420BD24F4A136823F007030B43136070
:1008EC00136803F007038B4240F08D80236813F0EC
:1008FC00020F17D013F0040F04D0474A536843F487
:10090C00E0635360236813F0080F04D0424A536825
:10091C0043F460535360404A536823F0F003A168DA
:10092C000B435360236813F0010F31D06368012B24
:10093C0020D0022B25D0384A126812F0020F64D056
:10094C0035494A6822F0030213434B60FFF746FD1A
:10095C000646314B5B6803F00C036268B3EB820F05
:10096C0016D0FFF73BFD801B41F288339842F0D93B
:10097C00032045E0284A126812F4003FE0D1012020
:10098C003EE0254A126812F0007FD9D1012037E0F1
:10099C00204B1B6803F00703AB420AD91D4A1368AE
:1009AC0023F007032B431360136803F00703AB42D8
:1009BC002DD1236813F0040F06D0174A536823F483
:1009CC00E063E1680B435360236813F0080F07D012
:1009DC00114A536823F46053216943EAC1035360FD
:1009EC00FFF734FF0C4B5B68C3F303130B4AD35C68
:1009FC00D8400B4B18600B4B1868FFF7ABFC002072
:100A0C0070BD012070470120FAE70120F8E70120B2
:100A1C00F6E700BF0020024000100240BC2700088F
:100A2C000800002004000020014B1868704700BF2C
:100A3C000800002008B5FFF7F7FF044B5B68C3F311
:100A4C000223034AD35CD84008BD00BF001002400B
:100A5C00CC27000808B5FFF7E7FF044B5B68C3F32E
:100A6C00C223034AD35CD84008BD00BF001002402B
:100A7C00CC27000870B582B00024A4468BE07F4DD3
:100A8C00AA4210D007D97E4DAA420CD005F580356C
:100A9C00AA4208D015E0A5F58015AA4203D005F5A9
:100AAC007025AA4209D18A68002A00F0BF80012A69
:100ABC0000F0B7804361082403E0A5F58015AA4235
:100ACC00F1D0BEF1FF0F00F2B3800646BEF1FF0F6E
:100ADC0000F2B0804FEA8C0233680F25954023EA70
:100AEC00050304FA02F2134333604B6813F0805F82
:100AFC004FD0644B9A6942F001029A619B6903F0F2
:100B0C0001030193019B4FEA9C02951C5E4B53F829
:100B1C0025600CF003039D000F23AB4026EA03066F
:100B2C005A4B984200F08C8003F58063984200F099
:100B3C00898003F58063984200F080800323AB40EA
:100B4C0033430232504D45F822304B6813F4803F4A
:100B5C007AD04F4A136843EA0E0313604B6813F4C0
:100B6C00003F77D04A4A536843EA0E0353604B6800
:100B7C0013F4801F74D0464A936843EA0E039360C3
:100B8C004B6813F4001F71D0414AD36843EA0E033B
:100B9C00D3600CF1010C0A6832FA0CF36CD001230F
:100BAC0003FA0CF302EA030E33EA0202F1D14A68AB
:100BBC00122A3FF664AF122A83D801A555F822F009
:100BCC00B30A0008190C0008230C0008350C0008A7
:100BDC00CF0A0008CF0A0008CF0A0008CF0A000885
:100BEC00CF0A0008CF0A0008CF0A0008CF0A000875
:100BFC00CF0A0008CF0A0008CF0A0008CF0A000865
:100C0C00CF0A00081D0C0008290C0008CC6858E716
:100C1C00CC68043455E7CC68083452E7CC680C3403
:100C2C004FE7036108244CE700244AE7042448E713
:100C3C00061D4BE7ACF1080292004DE702237EE75C
:100C4C0000237CE701237AE7114A136823EA0E0399
:100C5C00136083E70E4A536823EA0E03536086E75A
:100C6C000B4A936823EA0E03936089E7084AD3681A
:100C7C0023EA0E03D3608CE702B070BD0000221093
:100C8C00000031100010024000000140000801403B
:100C9C00000401408368194201D0012070470020F4
:100CAC0070470AB101617047090401617047C3685C
:100CBC0001EA030221EA030141EA024101617047A2
:100CCC00074AD36823F4E0631B041B0C000200F4F6
:100CDC00E060034343F0BF6343F40033D3607047D9
:100CEC0000ED00E000B5194BDB68C3F30223C3F140
:100CFC00070CBCF1040F28BF4FF0040C03F1040ED9
:100D0C00BEF1060F18D9033B4FF0FF3E0EFA0CFC58
:100D1C0021EA0C0199400EFA03F322EA030319436A
:100D2C0000280BDB0901C9B200F1604000F56140FD
:100D3C0080F800135DF804FB0023E5E700F00F00DA
:100D4C000901C9B2024B1954F4E700BF00ED00E0F1
:100D5C0014ED00E00138B0F1807F0BD24FF0E023AE
:100D6C005861054AF02182F823100020986107226F
:100D7C001A6170470120704700ED00E070470000D9
:100D8C0008B50B480B4B03600B4B4360002383608F
:100D9C00C3604FF48042026143618361C3610362AB
:100DAC0000F0AAF900B908BDFFF7D2F9FBE700BFC4
:100DBC00AC00002000540040A086010010B586B0A5
:100DCC00002302930393049305930268114B9A42F8
:100DDC0001D006B010BD104CA36943F00803A36109
:100DEC00A36903F008030093009BC0230293122312
:100DFC0003930323059302A90848FFF73BFEE3691D
:100E0C0043F40013E361E36903F400130193019BC2
:100E1C00DFE700BF0054004000100240000C01400E
:100E2C0003685A6912F4806F01D1002070476FF487
:100E3C0080625A6100230363202280F83D2080F8F1
:100E4C003E30026C42F00402026480F83C30012017
:100E5C0070472DE9F04107460D4690461E4624E0AA
:100E6C00FFF7BCFA069BC01AB04200D8EEB90023BB
:100E7C003B63202287F83D2087F83E303A6C42F0E5
:100E8C0020023A6487F83C3001201EE03B689C69E4
:100E9C0025EA040C1FFA8CFCBCFA8CFC4FEA5C1C97
:100EAC00E04511D1B6F1FF3FDAD1C5F30743012B71
:100EBC00ECD13B685B6925EA030C1FFA8CFCBCFA8D
:100ECC008CFC4FEA5C1CEBE70020BDE8F0812DE9BF
:100EDC00F04105460E46174698463DE01A6842F426
:100EEC0000721A602B686FF480625A6100232B63C6
:100EFC00202285F83D2085F83E302A6C42F0040211
:100F0C002A6485F83C30012034E0FFF767FAA0EB47
:100F1C000800B84200D8FFB900232B63202285F8C3
:100F2C003D2085F83E302A6C42F020022A6485F878
:100F3C003C3001201EE02B689C6926EA0404A4B214
:100F4C00003C18BF0124A4B12B685A6912F4806FBD
:100F5C00C4D1B7F1FF3FD8D1C6F30743012BEAD177
:100F6C002B685C6926EA0404A4B2003C18BF012477
:100F7C00E9E70020BDE8F08170B504460D46164641
:100F8C0023685B6913F0800F1CD12046FFF748FFE4
:100F9C00D0B9B5F1FF3FF3D0FFF720FA801BA84280
:100FAC0001D8002DECD100232363202284F83D20AE
:100FBC0084F83E30226C42F02002226484F83C30EB
:100FCC00012000E0002070BD0120FCE72DE9F0437A
:100FDC0085B004460D4691461F46DDF830800D9EC7
:100FEC000368196841F48071196000964346002229
:100FFC004FF00111FFF72DFF60B9236805F0FE05D6
:10100C001D613346424626492046FFF760FF68B112
:10101C00012008E023681B6813F4807F02D04FF492
:10102C0000732364032005B0BDE8F0830023039311
:10103C0023685A6903929B690393039B324641468A
:10104C002046FFF799FF30B9012F0FD123685FFAC3
:10105C0089F61E61E7E7236C042B01D00120E2E73F
:10106C002268136843F400731360F7E723684FEAB0
:10107C0019221A61324641462046FFF77DFF20B9FE
:10108C0023685FFA89F61E61CDE7236C042B01D02F
:10109C000120C8E72268136843F400731360F7E774
:1010AC000200010070B504460D46164623685B69C4
:1010BC0013F0040F1CD12046FFF7B2FED0B9B5F1E6
:1010CC00FF3FF3D0FFF78AF9801BA84201D8002D0F
:1010DC00ECD100232363202284F83D2084F83E3099
:1010EC00226C42F02002226484F83C30012000E0A3
:1010FC00002070BD0120FCE7002800F0CC8070B50A
:10110C00044690F83D30002B77D0242384F83D30F2
:10111C002268136823F0010313602268136843F4F8
:10112C00004313602268136823F400431360FFF735
:10113C0081FC62685A4B9A4264D85A4B98428CBFD5
:10114C0000230123002B40F0A8805749A1FB00315C
:10115C008B0C25686A6822F03F0242EA91426A6071
:10116C0021680A6A22F03F0266684D4DAE424FD8A4
:10117C00013313430B622168CA6922F44F4222F0F7
:10118C00FF026668464B9E424CD8431E7600B3FB6A
:10119C00F6F3013340F6FC70034278D0C3F30B0333
:1011AC001343CB6121680B6823F0C003E269206A0A
:1011BC00024313430B6021688B6823F4034323F031
:1011CC00FF032269E068024313438B602168CB68FC
:1011DC0023F0FF036269A06902431343CB602268CA
:1011EC00136843F00103136000202064202384F86B
:1011FC003D30206384F83E0070BD80F83C30FFF732
:10120C00DDFD82E7294B98428CBF0023012399E72F
:10121C004FF4967505FB03F3254DA5FB03539B0972
:10122C000133A6E7A368BBB9451E06EB460CB5FB1C
:10123C00FCF50135C5F30B05B5FA85F56D0945BB14
:10124C00C3B9013806EB4603B0FBF3F30133C3F328
:10125C000B0343F40043A3E7451E06EB860C0CEB93
:10126C008C0CB5FBFCF50135C5F30B05B5FA85F512
:10127C006D09E4E7013806EB860303EB8303B0FB4F
:10128C00F3F30133C3F30B0343F4404388E7042324
:10129C0086E7012384E7012070470120ACE700BFFB
:1012AC00A08601007F841E0083DE1B43FF083D00E7
:1012BC00D34D62102DE9F04383B004460F4690469F
:1012CC0099460C9EFFF78AF8054694F83D00C0B28B
:1012DC00202803D0022003B0BDE8F0830095192329
:1012EC0001224B492046FFF7B4FD002840F08980CD
:1012FC0094F83C30012B00F08680012384F83C30BC
:10130C0023681A6812F0010F03D11A6842F0010227
:10131C001A602268136823F400631360212384F895
:10132C003D30402384F83E30002323640A9B6362E3
:10133C00BDF82C306385638D2385364BE3620195B4
:10134C0000964B46424639462046FFF73FFE0028A2
:10135C005BD1238D002B35D02A4631462046FFF732
:10136C000BFE20BB626A236812781A61626A531CF6
:10137C006362218D013989B22185638D9BB2013B5A
:10138C009BB263852368586910F0040FE1D00029E3
:10139C00DFD052781A61636A01336362238D013B9B
:1013AC002385638D9BB2013B9BB26385D1E7236C94
:1013BC00042B01D001208EE72268136843F40073DC
:1013CC001360F7E72A4631462046FFF76BFE50B113
:1013DC00236C042B01D001207DE72268136843F4B1
:1013EC0000731360F7E72268136843F4007313600B
:1013FC00202384F83D30002384F83E3084F83C30C0
:10140C0069E7022067E7022065E7012063E700BF78
:10141C00020010000000FFFF10B584B000240EE0A5
:10142C004FF48073029301230193074A22440092E4
:10143C00002278210548FFF73DFF0134E4B21A2C55
:10144C00EED904B010BD00BF0C000020AC00002091
:10145C0000B587B08DF817004FF480730293012309
:10146C0001930DF117020092002278210248FFF738
:10147C0021FF07B05DF804FBAC00002000B587B07D
:10148C008DF817004FF480730293012301930DF133
:10149C0017020092402278210248FFF70BFF07B099
:1014AC005DF804FBAC00002008B5C820FEF79CFFDB
:1014BC00FFF7B2FF08BD38B5002509E00020FFF7A3
:1014CC00DDFF0134E4B214F0800FF7D00135EDB23A
:1014DC00072D0CD8A5F15000C0B2FFF7B9FF0020C2
:1014EC00FFF7B6FF1020FFF7B3FF0024EBE738BD82
:1014FC0010B50446A1F15000C0B2FFF7A9FF2009B6
:10150C0040F01000FFF7A4FF04F00F00FFF7A0FF5E
:10151C0010BD0000F8B507460E46203AD5B210F0C3
:10152C00800F07D1102B09D031463846FFF7E0FF6A
:10153C0000242DE00236F6B20027F3E73146384698
:10154C00FFF7D6FF002407E004EB0513124AD05C2A
:10155C00FFF794FF0134E4B2072CF5D9711CC9B222
:10156C003846FFF7C5FF002408E004EB05130833E9
:10157C00094AD05CFFF782FF0134E4B2072CF4D99E
:10158C0008E004F10F00C0B2FFF778FF0134E4B2B9
:10159C00052CF6D9F8BD00BFD42700082DE9F04181
:1015AC0004460E4617469846002501E00135EDB27B
:1015BC007A5D62B1434631462046FFF7ABFF0834F3
:1015CC00E4B2782CF2D90236F6B20024EEE7BDE88C
:1015DC00F081000038B50446C54D0022082128468C
:1015EC00FFF75FFB10212846FFF754FB00287CD047
:1015FC002021BF48FFF74EFB002800F08F804021D0
:10160C00BB48FFF747FB002800F0A2808021B848B8
:10161C00FFF740FB002800F0B580B54D01220821F2
:10162C002846FFF73EFB002204212846FFF739FB32
:10163C0010212846FFF72EFB002800F0BD8020214A
:10164C00AB48FFF727FB002800F0D0804021A848CA
:10165C00FFF720FB002800F0E2808021A448FFF770
:10166C0019FB002800F0F580A14D01220421284629
:10167C00FFF717FB002202212846FFF712FB10216F
:10168C002846FFF707FB002800F0FD802021984832
:10169C00FFF700FB002800F0108140219448FFF771
:1016AC00F9FA002800F03C8180219148FFF7F2FA0A
:1016BC00002800F04E818E4D012202212846FFF7B2
:1016CC00F0FA002201212846FFF7EBFA10212846F8
:1016DC00FFF7E0FA002800F0568120218448FFF73C
:1016EC00D9FA002800F0698138BDFFF7E4FE142018
:1016FC00FEF77AFE10237F4A04212720FFF74EFFC6
:10170C0002217D48FFF7D3FA10217948FFF7C2FA7E
:10171C000028F9D031232370637069E7FFF7CBFE03
:10172C001420FEF761FE1023744A04212720FFF7D2
:10173C0035FF02217048FFF7BAFA20216C48FFF7F9
:10174C00A9FA0028F9D0322323703123637056E7AD
:10175C00FFF7B1FE1420FEF747FE1023684A042160
:10176C002720FFF71BFF02216348FFF7A0FA402157
:10177C005F48FFF78FFA0028F9D033232370312309
:10178C00637043E7FFF797FE1420FEF72DFE10233E
:10179C005C4A04212720FFF701FF02215648FFF77E
:1017AC0086FA80215248FFF775FA0028F9D03423C5
:1017BC0023703123637030E7FFF77DFE1420FEF7B2
:1017CC0013FE1023504A04212720FFF7E7FE0221C5
:1017DC004948FFF76CFA10214548FFF75BFA0028DF
:1017EC00F9D0312323703223637028E7FFF763FEAF
:1017FC001420FEF7F9FD1023444A04212720FFF79B
:10180C00CDFE02213C48FFF752FA20213848FFF761
:10181C0041FA0028F9D032232370637016E7FFF7E2
:10182C004AFE1420FEF7E0FD1023394A042127203C
:10183C00FFF7B4FE02213048FFF739FA40212C485B
:10184C00FFF728FA0028F9D0332323703223637072
:10185C0003E7FFF730FE1420FEF7C6FD10232D4AD8
:10186C0004212720FFF79AFE02212348FFF71FFAD5
:10187C0080211F48FFF70EFA0028F9D0342323707B
:10188C0032236370F0E6FFF716FE1420FEF7ACFD72
:10189C001023214A04212720FFF780FE022116483D
:1018AC00FFF705FA10211248FFF7F4F90028F9D0D8
:1018BC003123237033236370E8E6FFF7FCFD14201B
:1018CC00FEF792FD1023154A04212720FFF766FE30
:1018DC0002210948FFF7EBF920210548FFF7DAF957
:1018EC000028F9D03223237033236370D5E600BF70
:1018FC0000080140B42D0008000C0140BC2D00086C
:10190C00C42D0008CC2D0008D42D0008DC2D0008B7
:10191C00E42D0008EC2D0008F42D0008FC2D000827
:10192C00FFF7C9FD1420FEF75FFD1023514A042177
:10193C002720FFF733FE02214F48FFF7B8F940216B
:10194C004E48FFF7A7F90028F9D0332323706370B2
:10195C00AAE6FFF7B0FD1420FEF746FD1023484A17
:10196C0004212720FFF71AFE02214348FFF79FF9B5
:10197C0080214248FFF78EF90028F9D034232370D8
:10198C003323637097E6FFF796FD1420FEF72CFDCA
:10199C0010233C4A04212720FFF700FE0221364881
:1019AC00FFF785F910213548FFF774F90028F9D0B5
:1019BC0031232370342363708FE6FFF77CFD1420F2
:1019CC00FEF712FD1023304A04212720FFF7E6FD15
:1019DC0002212948FFF76BF920212848FFF75AF913
:1019EC000028F9D03223237034236370402123481C
:1019FC00FFF750F950B180212048FFF74BF9F8B1AF
:101A0C00012211461D48FFF74CF96DE6FFF753FD17
:101A1C001420FEF7E9FC10231C4A04212720FFF7B1
:101A2C00BDFD02211448FFF742F933232370342300
:101A3C00637040211148FFF72DF90028F9D0DAE73F
:101A4C00FFF739FD1420FEF7CFFC1023104A0421B8
:101A5C002720FFF7A3FD02210748FFF728F9802173
:101A6C000648FFF717F90028F9D034232370637068
:101A7C00C6E700BF042E0008000C0140000801401E
:101A8C000C2E0008142E00081C2E0008242E000812
:101A9C002C2E000808B50A480A4B03604FF4E133BA
:101AAC00436000238360C36003610C224261836145
:101ABC00C36100F0E1F800B908BDFEF749FBFBE794
:101ACC00000100200038014010B586B000230293BD
:101ADC000393049305930268174B9A4201D006B006
:101AEC0010BD03F558439A6942F480429A619A6991
:101AFC0002F480420092009A9A6942F004029A61C0
:101B0C009B6903F004030193019B4FF40073029350
:101B1C000223039303230593084C02A92046FEF7E6
:101B2C00A9FF4FF48063029300230393049302A94B
:101B3C002046FEF79FFFD2E7003801400008014025
:101B4C000FB400B5B5B036AA52F8041B339201A8F5
:101B5C0000F096F901A8FEF7F3FA4FF0FF3382B2CA
:101B6C0001A9044800F0B7F835B05DF804EB04B0F7
:101B7C00704700BF0001002010B5044602681369CD
:101B8C0023F44053C1680B43136183680269134308
:101B9C0042691A430168CB6823F4B05323F00C0359
:101BAC001343CB600268536923F4407381690B4380
:101BBC0053610268134B9A4220D0FEF73BFF02465A
:101BCC0002EB820202EB820263689B00B2FBF3F22F
:101BDC000D48A0FB02314909642303FB11231B01AF
:101BEC003233A0FB03235B0903F0F00202EB01127A
:101BFC0003F00F03216813448B6010BDFEF72AFF1E
:101C0C000246DDE7003801401F85EB512DE9F84312
:101C1C0005460F4616469946DDF820802C68246848
:101C2C0037EA04030CBF4FF0010C4FF0000CB44525
:101C3C001FD1B8F1FF3FF1D0B8F1000F05D0FEF77E
:101C4C00CDFBA0EB09004045E8D92A68D36823F402
:101C5C00D073D3602A68536923F0010353612023A6
:101C6C0085F83D3085F83E30002385F83C30032064
:101C7C0000E00020BDE8F88358B310B5044690F896
:101C8C003D300BB3242384F83D302268D36823F411
:101C9C000053D3602046FFF76FFF2268136923F4CB
:101CAC00904313612268536923F02A03536122681D
:101CBC00D36843F40053D36000202064202384F8BD
:101CCC003D3084F83E3010BD80F83C30FFF7FCFE10
:101CDC00D8E7012070472DE9F04182B01E4690F8FC
:101CEC003D30DBB2202B54D104460D4690460029E2
:101CFC0053D0002A53D090F83C30012B51D0012303
:101D0C0080F83C3000230364212380F83D30FEF73B
:101D1C0065FB0746A4F82480A4F82680A368B3F5D5
:101D2C00805F05D04FF00008002384F83C3012E0AF
:101D3C00236913B14FF00008F6E7A8460025F3E736
:101D4C0038F8023B2268C3F308035360E28C92B26A
:101D5C00013A92B2E284E38C9BB273B100963B469B
:101D6C00002280212046FFF751FFE0B9002DE7D07B
:101D7C0015F8012B23685A60E8E700963B460022D1
:101D8C0040212046FFF742FF78B9202384F83D30EC
:101D9C0000E0022002B0BDE8F0810120FAE701204A
:101DAC00F8E70220F6E70320F4E70320F2E700004F
:101DBC000C480D490D4A002302E0D458C45004339A
:101DCC00C4188C42F9D30A4A0A4C002301E0136070
:101DDC000432A242FBD3FEF7D1FF00F00FF8FEF75E
:101DEC00EDF97047000000208C000020702E0008D8
:101DFC008C00002058010020FEE7000070B5002682
:101E0C000C4D0D4C641BA410A64209D100F0AAFC89
:101E1C0000260A4D0A4C641BA410A64205D170BDC5
:101E2C0055F8043B98470136EEE755F8043B9847C4
:101E3C000136F2E7682E0008682E0008682E0008AC
:101E4C006C2E000803460244934200D1704703F8FD
:101E5C00011BF9E700B59BB0009104916FF00041B4
:101E6C000591029105490391694600F06FF8002233
:101E7C00009B1A701BB05DF804FB00BF0802FFFF4B
:101E8C0013460A46014602480068FFF7E3BF00BF4D
:101E9C00280000202DE9F0478E6882469E420C46B1
:101EAC0090461F4638D88A8912F4906F32D0256834
:101EBC0009690133A5EB010965694B4405EB45053F
:101ECC0005EBD5756D109D4238BF1D46530531D5B8
:101EDC00294600F06FFB064650B90C234FF0FF303B
:101EEC00CAF80030A38943F04003A381BDE8F08712
:101EFC004A46216900F0CEFAA38923F4906343F09B
:101F0C008003A38126614E4426603E466561A5EBA5
:101F1C000905A560BE4200D93E46324641462068BE
:101F2C0000F0C6FAA36800209B1BA360236833440F
:101F3C002360DBE72A4600F0B1FB06460028E1D11E
:101F4C005046216900F0CEFAC7E700002DE9F04FAA
:101F5C0098468B8907461B060D4614469DB00ED538
:101F6C000B6963B9402100F025FB2860286120B97A
:101F7C000C233B604FF0FF30D1E040236B6100231A
:101F8C00099320238DF8293030234FF00109CDF827
:101F9C000C80DFF8A4818DF82A3023469A4613F87A
:101FAC00012B0AB1252AF9D1BAEB040B0BD05B46F5
:101FBC00224629463846FFF76DFF013000F0AA8013
:101FCC00099A5A4409929AF80030002B00F0A2802A
:101FDC0000234FF0FF32CDE905230AF1010A0493E7
:101FEC0007938DF853301A935446052214F8011BAD
:101FFC00514800F041FA049AD8B9D00644BF2023C6
:10200C008DF85330110744BF2B238DF853309AF8B9
:10201C0000302A2B15D0544600204FF00A0C079A9A
:10202C00214611F8013B303B092B4ED9B0B1079238
:10203C0014E0A0EB080309FA03F31343A24604933C
:10204C00D2E7039B191D1B680391002BBBBF5B429E
:10205C0042F0020207930793B8BF049223782E2B09
:10206C000CD163782A2B35D1039B02341A1D1B68C3
:10207C000392002BB8BF4FF0FF330593DFF8BCA0E1
:10208C0003225046217800F0F7F940B14023A0EB31
:10209C000A0003FA00F0049B01340343049314F880
:1020AC00011B062226488DF8281000F0E5F90028BF
:1020BC0038D0244B1BBB039B073323F00703083397
:1020CC000393099B3344099367E70C4601200CFBEF
:1020DC000232A5E700234FF00A0C19460134059390
:1020EC00204610F8012B303A092A03D9002BC5D011
:1020FC000591C3E7044601230CFB0121F0E703AB78
:10210C0000932A463846104B04A9AFF30080421CBA
:10211C000646D6D1AB895B063FF52CAF09981DB0AE
:10212C00BDE8F08F03AB00932A463846064B04A952
:10213C0000F07CF8EBE700BF322E0008382E0008C8
:10214C003C2E000800000000A11E00082DE9F047FD
:10215C00164699468A680B6907469342B8BF1346E0
:10216C00336091F843200C46DDF820800AB101332E
:10217C0033602368990642BF3368023333602568A5
:10218C0015F0060506D104F1190AE36832689B1AAA
:10219C00AB4228DC94F84320131E226818BF01239D
:1021AC0092062DD44946384604F14302C04701300B
:1021BC0020D02368E56803F00603042B18BF002524
:1021CC0032684FF00006A36808BFAD1A226908BF39
:1021DC0025EAE5759342C4BF9B1AED181A34B54233
:1021EC001AD1002008E00123524649463846C04720
:1021FC00013003D14FF0FF30BDE8F0870135C4E763
:10220C003020E11881F843005A1C94F84510224400
:10221C00023382F84310C5E701232246494638466B
:10222C00C0470130E6D00136D9E700002DE9FF4761
:10223C000F7E9146782F80460C469A460C9D01F1F4
:10224C00430207D8622F0AD8002F00F0D980582FEC
:10225C0000F0A48004F1420584F842703AE0A7F142
:10226C006303152BF6D801A151F823F0D1220008F5
:10227C00E5220008612200086122000861220008A2
:10228C0061220008E5220008612200086122000892
:10229C006122000861220008F323000815230008BE
:1022AC00D5230008612200086122000815240008CB
:1022BC006122000815230008612200086122000831
:1022CC00DD2300082B681A1D1B682A6004F14205E7
:1022DC0084F842300123A4E020682968060601F145
:1022EC0004030AD50E682B60002E03DA2D237642E8
:1022FC0084F843300A235E4819E00E6810F0400F52
:10230C002B6018BF36B2EFE72B682068191D2960C7
:10231C00010601D51E6802E04606FBD51E886F2F0C
:10232C000CBF08230A235248002184F84310656827
:10233C00002DA8BF2168A560A4BF21F00401216075
:10234C000EB9002D4DD01546B6FBF3F103FB11670A
:10235C00C75D05F8017D3746BB420E46F4D9082B04
:10236C000BD12368DE0708D5236961689942DEBF6B
:10237C00302305F8013C05F1FF35521B22614B4619
:10238C0021464046CDF800A003AAFFF7DFFE01303E
:10239C004CD14FF0FF3004B0BDE8F087344881F8E1
:1023AC0045702968236851F8046B29601D0614D503
:1023BC00DF0744BF43F0200323601EB9236823F0DA
:1023CC00200323601023AFE7236843F0200323602E
:1023DC007823284884F84530E3E7590648BFB6B25D
:1023EC00E6E71546BBE72B682668181D616928606F
:1023FC0035061B6801D5196002E07006FBD5198003
:10240C00002315462361BAE72B6800211A1D2A60A8
:10241C001D686268284600F02FF808B1401B606008
:10242C0063682361002384F84330A8E72A464946B1
:10243C0040462369D0470130ABD023689B0713D4A7
:10244C00E068039B9842B8BF1846A4E701233246C4
:10245C0049464046D04701309BD00135E36803998B
:10246C005B1AAB42F2DCEBE7002504F11906F5E749
:10247C00432E0008542E0008034610B5C9B202447E
:10248C009342184601D1002003E0047801338C42BA
:10249C00F6D110BD0A44914200F1FF3300D17047D0
:1024AC0010B511F8014B914203F8014FF9D110BD51
:1024BC00884210B501EB020402D98442234607D8A6
:1024CC00431EA14208D011F8012B03F8012FF8E7A5
:1024DC00014602448A4200D110BD13F8014D02F8A6
:1024EC00014DF7E738B50546002940D051F8043CBA
:1024FC000C1F002BB8BFE41800F010F91C4A13682D
:10250C0033B9636014602846BDE8384000F00CB95C
:10251C00A34208D9206821188B4201BF19685B6857
:10252C0009182160EDE71A465B680BB1A342FAD992
:10253C0011685018A0420BD12068014450188342F6
:10254C001160E0D118685B68014411605360DAE7F0
:10255C0002D90C232B60D6E7206821188B4201BFCF
:10256C0019685B680918216063605460CBE738BD5B
:10257C004401002070B50E4E0C463168054611B969
:10258C0000F0BCF830602146284600F0B7F8431C38
:10259C000AD0C41C24F00304A04207D0211A2846F8
:1025AC0000F0ACF8013001D14FF0FF34204670BD83
:1025BC00480100202DE9F041CD1C25F0030508351C
:1025CC000C2D38BF0C25002D074601DBA94205D97F
:1025DC000C2300263B603046BDE8F0812E4E00F007
:1025EC009DF833681C4634BB29463846FFF7C2FFBA
:1025FC00431C04464DD134682646002E40D1236836
:10260C003146384604EB030800F078F880453AD19F
:10261C00216803356D1A25F0030508350C2D38BFDC
:10262C000C2538462946FFF7A5FF01302BD023682F
:10263C002B4423600EE02268521B1ED40B2A16D9A1
:10264C006119A342256018BF5960636808BF3160E7
:10265C0062514B60384604F10B0600F065F826F029
:10266C000706231DF21AB6D09B1BA350B3E7626872
:10267C00A3420CBF32605A60ECE723466468B2E7B1
:10268C0034467668B9E70C2338463B6000F04CF8CA
:10269C00A1E72560DEE700BF440100202DE9F041F1
:1026AC00804614460E4621B91146BDE8F041FFF7AD
:1026BC0081BF2AB9FFF716FF25462846BDE8F081F1
:1026CC0000F038F88442074602D8B4EB500F12D809
:1026DC0021464046FFF76EFF05460028EDD0BC4270
:1026EC002246314628BF3A46FFF7D4FE31464046D3
:1026FC00FFF7F8FEE1E73546DFE7000038B50023C9
:10270C00054D044608462B6000F01EF8431C02D110
:10271C002B6803B1236038BD4C010020014800F048
:10272C0011B800BF50010020014800F00CB800BFE8
:10273C005001002051F8043C181F002BBCBF0B5853
:10274C00C018704770477047044A05491368002B3E
:10275C0008BF0B46184410601846704754010020FF
:10276C0058010020F8B500BFF8BC08BC9E46704765
:0C277C00F8B500BFF8BC08BC9E467047D2
:102788000000000048656C6C6F000000282563207D
:102798002C2563290A000000363636360000000072
:1027A80002030405060708090A0B0C0D0E0F10108A
:1027B8000000000000000000000000000102030407
:1027C80006070809000000000102030400000000D9
:1027D800000000000000000000000000000000F8F9
:1027E80000000000000000333000000000100C065C
:1027F800100C0600000000000000000040C07840F7
:10280800C0784000043F04043F040400007088FCC2
:1028180008300000001820FF211E0000F008F0001A
:10282800E018000000211C031E211E0000F008888B
:10283800700000001E2123241927211010160E00F5
:10284800000000000000000000000000000000E0A0
:1028580018040200000000071820400000020418B5
:10286800E00000000040201807000000404080F011
:10287800804040000202010F01020200000000F047
:10288800000000000101011F01010100000000001B
:102898000000000080B07000000000000000000090
:1028A8000000000000010101010101010000000019
:1028B80000000000003030000000000000000000B0
:1028C80080601804006018060100000000E010088D
:1028D8000810E000000F102020100F00001010F862
:1028E800000000000020203F2020000000700808A1
:1028F8000888700000302824222130000030088821
:10290800884830000018202020110E000000C02048
:1029180010F8000000070424243F240000F8088869
:10292800880808000019212020110E0000E01088F6
:1029380088180000000F112020110E000038080828
:10294800C83808000000003F000000000070880838
:1029580008887000001C222121221C0000E01008B9
:102968000810E0000000312222110F00000000C012
:10297800C0000000000000303000000000000080AF
:10298800000000000000806000000000000080409F
:1029980020100800000102040810200040404040B8
:1029A800404040000404040404040400000810200B
:1029B8004080000000201008040201000070480850
:1029C8000808F0000000003036010000C030C828B8
:1029D800E810E0000718272423140B000000C03873
:1029E800E0000000203C23020227382008F88888ED
:1029F80088700000203F202020110E00C0300808F9
:102A080008083800071820202010080008F80808CF
:102A18000810E000203F202020100F0008F88888C8
:102A2800E8081000203F20202320180008F8888894
:102A3800E8081000203F200003000000C03008080C
:102A48000838000007182020221E020008F8080095
:102A58000008F808203F210101213F20000808F85C
:102A6800080800000020203F20200000000008087F
:102A7800F8080800C08080807F00000008F888C03F
:102A880028180800203F20012638200008F80800F0
:102A980000000000203F20202020300008F8F80027
:102AA800F8F80800203F003F003F200008F830C039
:102AB8000008F808203F200007183F00E010080829
:102AC8000810E0000F10202020100F0008F8080858
:102AD8000808F000203F210101010000E01008086B
:102AE8000810E0000F18242438504F0008F8888890
:102AF80088887000203F2000030C30200070880870
:102B0800080838000038202121221C00180808F87D
:102B1800080818000000203F2000000008F80800FE
:102B28000008F808001F202020201F0008788800CF
:102B380000C83808000007380E010000F80800F83F
:102B48000008F800033C0700073C030008186880E9
:102B58008068180820302C03032C30200838C8005F
:102B6800C83808000000203F2000000010080808AE
:102B7800C83808002038262120201800000000FE50
:102B8800020202000000007F40404000000C30C0FC
:102B980000000000000000010638C0000002020228
:102BA800FE000000004040407F00000000000402DA
:102BB8000202040000000000000000000000000005
:102BC80000000000808080808080808000020204F5
:102BD80000000000000000000000000000008080ED
:102BE800808000000019242222223F2008F800805B
:102BF80080000000003F112020110E00000000801E
:102C080080800000000E11202020110000000080AC
:102C18008088F800000E112020103F2000008080DE
:102C280080800000001F222222221300008080F0F2
:102C3800888888180020203F20200000000080801D
:102C480080808000006B94949493600008F8008062
:102C580080800000203F210000203F2000809898BD
:102C6800000000000020203F20200000000000801D
:102C78009898000000C08080807F000008F800005D
:102C880080808000203F24022D302000000808F8B2
:102C9800000000000020203F20200000808080806D
:102CA80080808000203F20003F20003F80800080FF
:102CB80080800000203F210000203F20000080800D
:102CC80080800000001F202020201F0080800080BE
:102CD8008000000080FFA12020110E00000000806D
:102CE80080808000000E112020A0FF80808080005E
:102CF8008080800020203F2120000100000080808B
:102D0800808080000033242424241900008080E07F
:102D1800808000000000001F20200000808000004C
:102D280000808000001F202020103F20808080002D
:102D38000080808000010E3008060100808000803D
:102D4800008080800F300C030C300F000080800062
:102D5800808080000020312E0E312000808080008D
:102D68000080808080818E7018060100008080803D
:102D7800808080000021302C2221300000000000DB
:102D8800807C020200000000003F40400002027CFC
:102D9800800000000040403F0000000000000000EC
:102DA800FF00000000000000FF00000028312C3167
:102DB8002900000028322C312900000028332C314A
:102DC8002900000028342C312900000028312C3239
:102DD8002900000028322C322900000028332C3228
:102DE8002900000028342C322900000028312C3317
:102DF8002900000028322C332900000028332C3306
:102E08002900000028342C332900000028312C34F4
:102E18002900000028322C342900000028332C34E3
:102E28002900000028342C342900232D302B2000C1
:102E3800686C4C006566674546470030313233346C
:102E4800353637383941424344454600303132330C
:102E580034353637383961626364656600000000CE
:042E6800310100082C
:042E6C000D0100084C
:102E700001000000100000000024F400AE0010402B
:102E8000B081FFA1A6A83FC8D300D580D805D9F14D
:102E9000DA12D8308D14AF002C00002000000000A2
:102EA0000000000000000000000000000000000022
:102EB0000000000000000000000000000000000012
:102EC0000000000000000000000000000000000002
:102ED00000000000000000000000000000000000F2
:102EE00000000000000000000000000000000000E2
:0C2EF000000000000000000000000000D6
:0400000508001DBD15
:00000001FF
