:020000040800F2
:1000000000500020FD1C0008B5030008B7030008DD
:10001000B9030008BB030008BD030008000000008E
:10002000000000000000000000000000BF03000806
:10003000C103000800000000C3030008C503000856
:10004000451D0008451D0008451D0008451D000808
:10005000451D0008451D0008451D0008451D0008F8
:10006000451D0008451D0008451D0008451D0008E8
:10007000451D0008451D0008451D0008451D0008D8
:10008000451D0008451D0008451D0008451D0008C8
:10009000451D0008451D0008451D0008451D0008B8
:1000A000451D0008451D0008451D0008451D0008A8
:1000B000451D0008451D0008451D0008451D000898
:1000C000451D0008451D0008451D0008451D000888
:1000D000451D0008CD030008451D0008451D00080A
:1000E000451D0008451D0008451D000800000000D2
:1000F0000000000000000000000000000000000000
:0C01000000000000000000005FF808F1A3
:10010C0010B5054C237833B9044B13B10448AFF345
:10011C0000800123237010BD70000020000000003F
:10012C00B026000808B5034B1BB103490348AFF3D5
:10013C00008008BD0000000074000020B0260008FC
:10014C00034613F8012B002AFBD1181A013870470B
:10015C0010B5044600F032FB08B1002010BD21465A
:10016C00094800F01DFA2378312B05D0322B07D02B
:10017C00064B00221A60F0E7044B01221A60ECE7F0
:10018C00024B02221A60E8E7C826000894000020FF
:10019C000023034A1370034A1370034A1360704719
:1001AC00900000208C00002094000020704772B654
:1001BC00FEE700B591B02822002106A801F0E2FD6F
:1001CC000023019302930393049305930122069257
:1001DC004FF4803307930A9202220D920E934FF440
:1001EC00E0130F9306A800F08BFD80B90F23019349
:1001FC0002210291002303934FF480620492059331
:10020C0001A800F0BDFF20B911B05DF804FBFFF7A9
:10021C00CEFFFFF7CCFF000038B500F037FDFFF73D
:10022C00C8FF00F071F800F05DF900F0FFF806E08F
:10023C002C4800F0B5F94FF47A7000F0ECF800F0AF
:10024C0093FA05460028F3D100F0D2FA264800F0C4
:10025C00A7F9264800F0A4F92C461AE0244800F02F
:10026C009FF9244C01224FF40051204601F076F9FD
:10027C006421002000F0B0F900224FF40051204618
:10028C0001F06CF92C46FFF783FF4FF4FA7000F085
:10029C00C2F81948FFF75CFF184B1B68012BDDD027
:1002AC00022B08D0002BEED1002CECD1144800F01E
:1002BC0077F90124E7E7134800F072F90D4C01229D
:1002CC004FF40051204601F049F96421012000F05F
:1002DC0083F900224FF40051204601F03FF92C46DF
:1002EC00D1E700BFD4260008E4260008F826000851
:1002FC0024270008000C01408C00002094000020F2
:10030C000827000834270008F0B589B000240494AD
:10031C00059406940794224B9A6942F020029A6144
:10032C009A6902F020020192019A9A6942F0040241
:10033C009A619A6902F004020292029A9A6942F056
:10034C0008029A619B6903F008030393039B154D04
:10035C00224643F62041284601F000F94FF4305371
:10036C0004931123059306940227079704A92846A2
:10037C0000F0E2FF4FF48153049301260596069694
:10038C00079704A9284600F0D7FF1023049305947F
:10039C0006960DEB0301284600F0CEFF09B0F0BD28
:1003AC0000100240000C0140FEE7FEE7FEE7FEE70E
:1003BC00FEE770477047704708B500F079FC08BD40
:1003CC0008B5024801F092FB08BD00BFF000002008
:1003DC0082B00E4B9A6942F001029A619A6902F05E
:1003EC0001020092009ADA6942F08052DA61DB690C
:1003FC0003F080530193019B054A536823F0E0639B
:10040C0043F00073536002B0704700BF001002400D
:10041C0000000140704738B5054600F055FC044615
:10042C0000F052FC001BA842FAD338BD08B50E48A8
:10043C000E4B03604FF48273436000238360C360F0
:10044C00036143614FF4007282611822C26103623E
:10045C00436283620A23C36200F07AFA00B908BDD2
:10046C00FFF7A5FEFBE700BF98000020003001401D
:10047C0010B586B00023029303930493059302688E
:10048C00164B9A4201D006B010BD03F560439A6931
:10049C0042F480529A619A6902F480520092009A56
:1004AC009A6942F004029A619B6903F00403019378
:1004BC00019BA02302930223039303230593084C6F
:1004CC0002A9204600F038FF402302930023039337
:1004DC00049302A9204600F02FFFD4E7003001401E
:1004EC000008014008B50A480A4B03604FF4E13399
:1004FC00436000238360C36003610C22426183610B
:10050C00C36101F0D5F900B908BDFFF750FEFBE758
:10051C00F00000200038014030B587B00023029372
:10052C0003930493059302681B4B9A4201D007B0C6
:10053C0030BD03F558439A6942F480429A619A6936
:10054C0002F480420092009A9A6942F004029A6185
:10055C009B6903F004030193019B4FF40073029316
:10056C0002230393032305930C4D02A9284600F0A4
:10057C00E3FE4FF48063029300240394049402A9D5
:10058C00284600F0D9FE22462146252001F06CF8C1
:10059C00252001F0A1F8CAE700380140000801400D
:1005AC000FB400B5B5B036AA52F8041B339201A8AB
:1005BC0001F006FC01A8FFF7C3FD4FF0FF3382B238
:1005CC0001A9044801F0A3F935B05DF804EB04B0BF
:1005DC00704700BFF000002070B50E4638B90022FD
:1005EC004FF48061124800F0B9FF00241AE0012298
:1005FC004FF480610E4800F0B1FFF6E70C4D01227C
:10060C004FF40061284600F0A9FF0220FFF703FF1A
:10061C0000224FF40061284600F0A0FF0220FFF7F3
:10062C00FAFE0134B442E9DB6420FFF7F4FE70BD3E
:10063C00000C014000B585B08DF80E10FF2300931F
:10064C0001230DF10F020DF10E0100F0DCF910B1D8
:10065C00FF238DF80F309DF80F0005B05DF804FBFB
:10066C00F8B504460D460B4E00222021304600F012
:10067C0075FF094F21463846FFF7DCFF0446294633
:10068C003846FFF7D7FF01222021304600F066FFE5
:10069C002046F8BD000C01409800002070B50446BF
:1006AC000B4D00222021284600F058FF094E214610
:1006BC003046FFF7BFFFFF213046FFF7BBFF044674
:1006CC0001222021284600F049FF204670BD00BFC2
:1006DC00000C014098000020F8B504460E46154663
:1006EC00002220210C4800F039FF21460B48FFF76F
:1006FC00A1FF0746002406E0FF210848FFF79AFFF8
:10070C0030550134E4B2AC42F6D301222021024828
:10071C0000F024FF3846F8BD000C01409800002082
:10072C00F8B505460C461646002220210C4800F070
:10073C0015FF29460B48FFF77DFF0746002506E00D
:10074C0014F8011B0748FFF775FF0135EDB2B542F0
:10075C00F6D301222021024800F000FF3846F8BDF4
:10076C00000C01409800002000B583B0124B93E8B8
:10077C00030000908DF80410052269463020FFF725
:10078C00CFFF052269461020FFF7A6FF0023042B9C
:10079C0009D803F108026A4412F8082CA52A02D1E0
:1007AC000133DBB2F3E7052B03D1002003B05DF876
:1007BC0004FB0120FAE700BF5C27000838B50546AA
:1007CC000720FFF76BFF044601462720FFF748FF81
:1007DC0014F0400F01D1012038BD202229466120A0
:1007EC00FFF77AFFFF21E220FFF73AFF0020F3E743
:1007FC0010B5174C00224FF48051204600F0AEFE8D
:10080C000F212020FFF72CFF01212120FFF728FFCB
:10081C0001212220FFF724FF28212520FFF720FFAC
:10082C000F212620FFF71CFF20213120FFF718FF96
:10083C00052208492A20FFF773FF01224FF480514B
:10084C00204600F08BFE0120FFF7E5FD10BD00BF38
:10085C00000C0140642700082DE9F04782B00546E2
:10086C00884617461E4600F02FFA0A9B1B1A03EB0C
:10087C00060900F029FA82462B4B1B68C3F3CB33D5
:10088C0009FB03F301932B689C6838EA04030CBF43
:10089C004FF0010C4FF0000CBC4540D0B6F1FF3FBF
:1008AC00F1D000F011FAA0EB0A0048450AD2B9F1D8
:1008BC00000F07D0019A02B14A46019B013B0193FC
:1008CC009146E0E72A68536823F0E00353606B68B5
:1008DC00B3F5827F0BD0AB6AB3F5005F14D0012364
:1008EC0085F85130002385F85030032018E0AB68B0
:1008FC00B3F5004F02D0B3F5806FECD12A681368C2
:10090C0023F040031360E6E72A68136823F40053CE
:10091C0013602A68136843F400531360DFE7002068
:10092C0002B0BDE8F08700BF0000002010B582B017
:10093C0004460B46009200228021FFF78DFF08B978
:10094C0002B010BD636D43F0200363650320F7E72D
:10095C00002856D010B50446436A33B94368B3F542
:10096C00827F05D00023C36102E000230361436151
:10097C000023A36294F85130002B3CD0022384F85E
:10098C0051302268136823F040031360636803F44A
:10099C008273A26802F404421343E26802F4006218
:1009AC001343226902F002021343626902F001024E
:1009BC001343A26902F400721343E26902F0380295
:1009CC001343226A02F080021343A26A02F400521B
:1009DC00216813430B60638B226803F0040353609C
:1009EC002268D36923F40063D3610020606501237E
:1009FC0084F8513010BD84F850302046FFF738FD94
:100A0C00BCE7012070472DE9F04383B01F460A9DD7
:100A1C0090F85030012B00F0108104468846914626
:100A2C00012380F8503000F04FF9064694F851300D
:100A3C00DBB26268012B0AD0B2F5827F40F0E38012
:100A4C00A268002A40F0E980042B40F0E880B8F15D
:100A5C00000F00F0E680B9F1000F00F0E480002FE9
:100A6C0000F0E38094F85130DBB2042B02D0052364
:100A7C0084F8513000236365C4F83890E787A78762
:100A8C00C4F83080E786A7862364636423681A68F9
:100A9C0012F0400F03D11A6842F040021A60E3686A
:100AAC00B3F5006F11D063680BB1012F0BD1226B22
:100ABC00236812781A73236B01332363E38E9BB282
:100ACC00013B9BB2E38601276BE063680BB1012FFE
:100ADC000BD1226B23681288DA60236B02332363F9
:100AEC00E38E9BB2013B9BB2E38601271CE023689B
:100AFC009A6812F0010F0ED0E28F92B25AB1DA68F6
:100B0C00A36B1A80A36B0233A363E38F9BB2013BED
:100B1C009BB2E387012700F0D7F8801BA84203D3D0
:100B2C00B5F1FF3F40F08380E38E9BB21BB9E38F9E
:100B3C009BB2002B53D023689A6812F0020FD6D0C8
:100B4C00E28E92B2002AD2D0002FD0D0226B128823
:100B5C00DA60236B02332363E38E9BB2013B9BB2BF
:100B6C00E3860027C3E723689A6812F0010F0ED0C2
:100B7C00E28F92B25AB1DA68A36B1A70A36B01338D
:100B8C00A363E38F9BB2013B9BB2E387012700F089
:100B9C009BF8831BAB4202D3B5F1FF3F49D1002D2B
:100BAC0049D0E38E9BB213B9E38F9BB2BBB12368E0
:100BBC009A6812F0020FD6D0E28E92B2002AD2D0EE
:100BCC00002FD0D0226B12781A73236B013323635E
:100BDC00E38E9BB2013B9BB2E3860027C3E7324610
:100BEC0029462046FFF7A2FE48B9A36863B90193D2
:100BFC002368DA6801929B680193019B04E020232F
:100C0C006365012000E00220012384F851300023A9
:100C1C0084F8503003B0BDE8F0830220F4E70220E2
:100C2C00F2E70120F0E70120EEE70120ECE70320DA
:100C3C00EAE70320E8E70320E6E70220EAE7000002
:100C4C0010B504460E4B18784FF47A73B3FBF0F3DF
:100C5C000C4A1068B0FBF3F000F04CFD68B90F2C97
:100C6C0001D901200AE0002221464FF0FF3000F0AC
:100C7C00FBFC054B1C60002000E0012010BD00BFF8
:100C8C0004000020000000200800002008B5074ADE
:100C9C00136843F010031360032000F0D3FC0F2003
:100CAC00FFF7CEFFFFF794FB002008BD00200240A9
:100CBC00034A1168034B1B780B441360704700BF49
:100CCC003401002004000020014B1868704700BF5D
:100CDC003401002082B0084B1B68084AA2FB032396
:100CEC005B0A00FB03F3019300BF019B5A1E0192A8
:100CFC00002BF9D102B0704700000020D34D6210D8
:100D0C00002800F0F18170B582B00446036813F03E
:100D1C00010F2CD0994B5B6803F00C03042B1DD0F6
:100D2C00964B5B6803F00C03082B12D06368B3F589
:100D3C00803F41D0002B55D103F1804303F50433A0
:100D4C001A6822F480321A601A6822F480221A601F
:100D5C0037E08A4B5B6813F4803FE7D0874B1B6806
:100D6C0013F4003F03D06368002B00F0BF812368AD
:100D7C0013F0020F75D0814B5B6813F00C0F5FD032
:100D8C007E4B5B6803F00C03082B54D02369002BBB
:100D9C0000F08A807A4B01221A60FFF795FF054616
:100DAC00764B1B6813F0020F75D1FFF78DFF401BBC
:100DBC000228F5D903209EE1704A136843F480336E
:100DCC001360636843B3FFF77FFF05466B4B1B68EB
:100DDC0013F4003FCBD1FFF777FF401B6428F5D904
:100DEC00032088E1B3F5A02F09D0644B1A6822F4D4
:100DFC0080321A601A6822F480221A60E1E703F14B
:100E0C008043A3F53C331A6842F480221A601A68B6
:100E1C0042F480321A60D4E7FFF756FF0546574B71
:100E2C001B6813F4003FA2D0FFF74EFF401B642851
:100E3C00F5D903205FE1514B5B6813F4803FA5D1DA
:100E4C004E4B1B6813F0020F03D02369012B40F0AB
:100E5C004F814A4A136823F0F803616943EAC103DE
:100E6C001360236813F0080F33D0A369002B5CD0F8
:100E7C00434B0122C3F88024FFF726FF05463F4B66
:100E8C005B6A13F0020F21D1FFF71EFF401B0228F3
:100E9C00F5D903202FE1394A136823F0F80361696F
:100EAC0043EAC1031360DCE7354B00221A60FFF7FD
:100EBC000BFF0546314B1B6813F0020FD1D0FFF727
:100ECC0003FF401B0228F5D9032014E10120FFF792
:100EDC0001FF236813F0040F00F09680274BDB69A9
:100EEC0013F0805F34D1254BDA6942F08052DA611D
:100EFC00DB6903F080530193019B0125214B1B6897
:100F0C0013F4807F26D0E368012B3DD0002B53D106
:100F1C0003F1804303F504331A6A22F001021A62CA
:100F2C001A6A22F004021A6233E0154B0022C3F84D
:100F3C008024FFF7C9FE0546104B5B6A13F0020FC5
:100F4C00C7D0FFF7C1FE401B0228F5D90320D2E021
:100F5C000025D3E70B4A136843F480731360FFF743
:100F6C00B3FE0646074B1B6813F4807FCBD1FFF70B
:100F7C00ABFE801B6428F5D90320BCE000100240B6
:100F8C0000004242007000405F4A136A43F00103C4
:100F9C001362E36833B3FFF797FE06465A4B1B6A9E
:100FAC0013F0020F2FD1FFF78FFE801B41F2883315
:100FBC009842F3D903209EE0052B09D0524B1A6AB4
:100FCC0022F001021A621A6A22F004021A62E0E7A5
:100FDC004D4B1A6A42F004021A621A6A42F001027C
:100FEC001A62D6E7FFF770FE0646474B1B6A13F0F2
:100FFC00020F08D0FFF768FE801B41F2883398423D
:10100C00F3D9032077E0E5B9E369002B72D03E4AAF
:10101C00526802F00C02082A56D0022B17D03B4B18
:10102C0000221A66FFF750FE0446374B1B6813F07C
:10103C00007F47D0FFF748FE001B0228F5D903209C
:10104C0059E0314AD36923F08053D361DCE72F4B4D
:10105C0000221A66FFF738FE05462B4B1B6813F06F
:10106C00007F06D0FFF730FE401B0228F5D9032085
:10107C0041E0236AB3F5803F1AD023494B6823F42F
:10108C007413226A606A024313434B601F4B0122A4
:10109C001A66FFF719FE04461B4B1B6813F0007F02
:1010AC000ED1FFF711FE001B0228F5D9032022E018
:1010BC00154A536823F40033A1680B435360DCE7F3
:1010CC00002018E0002016E0012B16D00E4B5B68B8
:1010DC0003F48031226A914211D103F47013626AD5
:1010EC0093420ED1002006E001207047012002E05F
:1010FC00012000E0002002B070BD0120FBE70120C0
:10110C00F9E70120F7E700BF00100240000042425F
:10111C0086B0174B0FCB0DF1180C0CE90F0040F2F9
:10112C000123ADF80430134B5B6803F00C02082A62
:10113C0002D0114806B07047C3F3834218326A4498
:10114C0012F8100C13F4803F0DD00A4B5B68C3F3FC
:10115C00404318336B4413F8143C074A02FB00F06D
:10116C00B0FBF3F0E6E7054B03FB00F0E2E700BF52
:10117C006C2700080010024000127A0000093D00A4
:10118C00002800F0A08070B50D460446524B1B6839
:10119C0003F007038B420BD24F4A136823F007036B
:1011AC000B431360136803F007038B4240F08D80F0
:1011BC00236813F0020F17D013F0040F04D0474A22
:1011CC00536843F4E0635360236813F0080F04D0B2
:1011DC00424A536843F460535360404A536823F0C7
:1011EC00F003A1680B435360236813F0010F31D057
:1011FC006368012B20D0022B25D0384A126812F0DC
:10120C00020F64D035494A6822F0030213434B6045
:10121C00FFF75AFD0646314B5B6803F00C0362681E
:10122C00B3EB820F16D0FFF74FFD801B41F28833D2
:10123C009842F0D9032045E0284A126812F4003F86
:10124C00E0D101203EE0254A126812F0007FD9D18E
:10125C00012037E0204B1B6803F00703AB420AD98F
:10126C001D4A136823F007032B431360136803F024
:10127C000703AB422DD1236813F0040F06D0174A95
:10128C00536823F4E063E1680B435360236813F065
:10129C00080F07D0114A536823F46053216943EABD
:1012AC00C1035360FFF734FF0C4B5B68C3F30313AC
:1012BC000B4AD35CD8400B4B18600B4B1868FFF7EC
:1012CC00BFFC002070BD012070470120FAE701200F
:1012DC00F8E70120F6E700BF0020024000100240B2
:1012EC00442700080000002008000020014B18686B
:1012FC00704700BF0000002008B5FFF7F7FF044B54
:10130C005B68C3F30223034AD35CD84008BD00BF1B
:10131C00001002405427000808B5FFF7E7FF044B04
:10132C005B68C3F3C223034AD35CD84008BD00BF3B
:10133C00001002405427000870B582B00024A44667
:10134C00A6E0804DAA4210D007D97F4DAA420CD0FE
:10135C0005F58035AA4208D013E0A5F58015AA4200
:10136C0003D005F57025AA4207D18A68002A58D007
:10137C00012A51D04361082403E0A5F58015AA4247
:10138C00F3D0BEF1FF0F4ED80646BEF1FF0F4CD87E
:10139C004FEA8C0233680F25954023EA050304FAC3
:1013AC0002F2134333604B6813F0805F6ED0674BCF
:1013BC009A6942F001029A619B6903F0010301935F
:1013CC00019B4FEA9C02951C614B53F825600CF075
:1013DC0003039D000F23AB4026EA03065D4B9842A6
:1013EC0029D003F58063984200F08E8003F580636A
:1013FC00984200F08B8003F58063984219D0042347
:10140C001AE0CC68BDE7CC680434BAE7CC68083481
:10141C00B7E7CC680C34B4E703610824B1E70024C7
:10142C00AFE70424ADE7061DAFE7ACF1080292006C
:10143C00B0E7032300E00023AB4033430232444DBA
:10144C0045F822304B6813F4803F61D0424A136850
:10145C0043EA0E0313604B6813F4003F5ED03E4A20
:10146C00536843EA0E0353604B6813F4801F5BD040
:10147C00394A936843EA0E0393604B6813F4001FD8
:10148C0058D0354AD36843EA0E03D3600CF1010CF3
:10149C000A6832FA0CF353D0012303FA0CF302EA74
:1014AC00030E33EA0202F1D14A68122A3FF649AF21
:1014BC00122A3FF666AF01A555F822F07713000803
:1014CC000F140008191400082B1400088F130008BF
:1014DC008F1300088F1300088F1300088F13000858
:1014EC008F1300088F1300088F1300088F13000848
:1014FC008F1300088F1300088F1300088F13000838
:10150C00131400081F140008012395E7022393E726
:10151C00114A136823EA0E0313609CE70E4A5368C2
:10152C0023EA0E0353609FE70B4A936823EA0E03EA
:10153C009360A2E7084AD36823EA0E03D360A5E7B9
:10154C0002B070BD000022100000311000100240EB
:10155C000000014000080140000401400AB1016193
:10156C00704709040161704790F82130022B06D0B6
:10157C0004238363002380F8203001207047026825
:10158C00136823F00E0313600268136823F0010341
:10159C001360036CC16B012202FA03F34B6080F8F9
:1015AC002120002380F820301846704708B590F8A9
:1015BC002130022B03D004238363012008BD026871
:1015CC00136823F00E0313600268136823F0010301
:1015DC0013600368194A934214D0143293421FD0FB
:1015EC00143293421ED0143293421ED014329342C2
:1015FC001ED01432934202D04FF0807203E04FF4AD
:10160C00801200E001220E4B5A60012380F8213039
:10161C00002380F82030436B6BB198470020CDE756
:10162C001022F0E74FF48072EDE74FF48052EAE7B6
:10163C004FF48032E7E70020C0E700BF080002400B
:10164C0000000240074AD36823F4E0631B041B0C20
:10165C00000200F4E060034343F0BF6343F4003343
:10166C00D360704700ED00E000B5194BDB68C3F3A5
:10167C000223C3F1070CBCF1040F28BF4FF0040C7C
:10168C0003F1040EBEF1060F18D9033B4FF0FF3ED9
:10169C000EFA0CFC21EA0C0199400EFA03F322EA33
:1016AC000303194300280BDB0901C9B200F16040A8
:1016BC0000F5614080F800135DF804FB0023E5E7BA
:1016CC0000F00F000901C9B2024B1954F4E700BF36
:1016DC0000ED00E014ED00E0002807DB00F01F0235
:1016EC00400901239340024A42F82030704700BF62
:1016FC0000E100E00138B0F1807F0BD24FF0E02325
:10170C005861054AF02182F82310002098610722C5
:10171C001A6170470120704700ED00E00268D36841
:10172C0023F49073D3600268536923F0010353616F
:10173C00036B012B05D0202380F83E30002303637C
:10174C0070470268D36823F01003D360F3E790F876
:10175C003D30DBB2212B01D0022070478368B3F5FA
:10176C00805F17D0036A5A1C02621A7803685A60A9
:10177C00C38C9BB2013B9BB2C3844BB90268D36848
:10178C0023F08003D3600268D36843F04003D36036
:10179C00002070470369002BE4D1036A1B880268A0
:1017AC00C3F308035360036A02330362E0E70000EB
:1017BC0010B504460268136923F44053C1680B4307
:1017CC00136183680269134342691A430168CB6849
:1017DC0023F4B05323F00C031343CB60026853691A
:1017EC0023F4407381690B4353610268134B9A4293
:1017FC0020D0FFF781FD024602EB820202EB82024F
:10180C0063689B00B2FBF3F20D48A0FB023149095F
:10181C00642303FB11231B013233A0FB03235B095D
:10182C0003F0F00202EB011203F00F0321681344E2
:10183C008B6010BDFFF770FD0246DDE700380140FC
:10184C001F85EB512DE9F84305460F461646994680
:10185C00DDF820802C68246837EA04030CBF4FF0B5
:10186C00010C4FF0000CB4451FD1B8F1FF3FF1D083
:10187C00B8F1000F05D0FFF727FAA0EB090040459F
:10188C00E8D92A68D36823F4D073D3602A685369E3
:10189C0023F001035361202385F83D3085F83E3059
:1018AC00002385F83C30032000E00020BDE8F883DD
:1018BC0058B310B5044690F83D300BB3242384F88C
:1018CC003D302268D36823F40053D3602046FFF7E1
:1018DC006FFF2268136923F49043136122685369E4
:1018EC0023F02A0353612268D36843F40053D36076
:1018FC0000202064202384F83D3084F83E3010BD55
:10190C0080F83C30FEF708FED8E7012070472DE93F
:10191C00F04182B01E4690F83D30DBB2202B54D102
:10192C0004460D469046002953D0002A53D090F817
:10193C003C30012B51D0012380F83C300023036450
:10194C00212380F83D30FFF7BFF90746A4F8248027
:10195C00A4F82680A368B3F5805F05D04FF000088B
:10196C00002384F83C3012E0236913B14FF00008D7
:10197C00F6E7A8460025F3E738F8023B2268C3F3E4
:10198C0008035360E28C92B2013A92B2E284E38C87
:10199C009BB273B100963B46002280212046FFF794
:1019AC0051FFE0B9002DE7D015F8012B23685A60E0
:1019BC00E8E700963B46002240212046FFF742FF15
:1019CC0078B9202384F83D3000E0022002B0BDE855
:1019DC00F0810120FAE70120F8E70220F6E7032066
:1019EC00F4E70320F2E7704708B50168CA6822F0F3
:1019FC004002CA60202280F83D20FFF7F4FF00204F
:101A0C0008BD704708B5406A0023C385C384FFF73F
:101A1C00F8FF08BD704790F83E30DBB2222B60D146
:101A2C008368B3F5805F46D0826AB3F5805F04D0DB
:101A3C00002B4DD10369002B4AD103685B681370EE
:101A4C00836A01338362C38D9BB2013B9BB2C38516
:101A5C00002B48D100B583B00268D36823F0200373
:101A6C00D3600268D36823F48073D360026853692F
:101A7C0023F001035361202380F83E30036B012BCC
:101A8C002CD1002303630268D36823F01003D360C6
:101A9C0003681A6812F0100F06D0002201921A681F
:101AAC0001925B680193019B818DFFF7B3FF0020CE
:101ABC0003B05DF804FB0269002AB5D1826A0368A1
:101ACC005B68C3F308031380836A02338362BAE74B
:101ADC0003685B6803F07F031370B1E7FEF766FBE6
:101AEC00E5E70220704700207047000030B583B056
:101AFC00044602681368D068516913F00F0505D1CC
:101B0C0013F0200F02D010F0200F19D12DB111F0CD
:101B1C00010119D110F4907F16D1216B012975D0D8
:101B2C0013F0800F03D010F0800F40F0D78013F02B
:101B3C00400F03D010F0400F40F0D48003B030BD04
:101B4C002046FFF768FFF9E713F0010F06D010F4F9
:101B5C00807F03D0226C42F00102226413F0040F48
:101B6C0004D019B1226C42F00202226413F0020F6D
:101B7C0004D019B1226C42F00402226413F0080F55
:101B8C0007D010F0200F00D119B1226C42F00802DE
:101B9C002264226C002AD1D013F0200F02D010F056
:101BAC00200F21D123685B6903F04003226C12F0F3
:101BBC00080F00D123B32046FFF7B0FD23685A6904
:101BCC0012F0400F18D05A6922F040025A61A36BF0
:101BDC0073B1464A5A63A06BFFF7E8FC0028ADD0FE
:101BEC00A06B436B9847A9E72046FFF714FFD9E792
:101BFC002046FFF706FFA1E72046FFF702FF9DE70F
:101C0C002046FFF7FEFE0023236497E713F0100F26
:101C1C0086D010F0100F83D000230193136801932A
:101C2C0053680193019B536913F0400F32D0A16BA1
:101C3C000B685B689BB2002B80D0A08D98427FF61E
:101C4C007DAFE3858B69202B08D1A18DE38D9BB2F1
:101C5C00C91A89B22046FFF7DDFE6FE7D36823F47B
:101C6C008073D3602268536923F0010353612268A7
:101C7C00536923F040035361202384F83E30002342
:101C8C0023632268D36823F01003D360A06BFFF7A3
:101C9C006BFCDAE7A18DE38D9BB2C91A89B2E38D97
:101CAC009BB2002B3FF44AAF00293FF447AFD368F7
:101CBC0023F49073D3602268536923F001035361BA
:101CCC00202384F83E30002323632268D36823F05A
:101CDC001003D3602046FFF79DFE2FE72046FFF749
:101CEC0036FD2BE72046FFF77FFE27E7111A000889
:101CFC000C480D490D4A002302E0D458C45004335B
:101D0C00C4188C42F9D30A4A0A4C002301E0136030
:101D1C000432A242FBD3FEF77DFB00F00FF8FEF776
:101D2C007BFA70470000002070000020B8270008E4
:101D3C00700000204C010020FEE7000070B500266A
:101D4C000C4D0D4C641BA410A64209D100F0AAFC4A
:101D5C0000260A4D0A4C641BA410A64205D170BD86
:101D6C0055F8043B98470136EEE755F8043B984785
:101D7C000136F2E7B0270008B0270008B0270008AA
:101D8C00B427000803460244934200D1704703F87D
:101D9C00011BF9E700B59BB0009104916FF0004175
:101DAC000591029105490391694600F06FF80022F4
:101DBC00009B1A701BB05DF804FB00BF0802FFFF0C
:101DCC0013460A46014602480068FFF7E3BF00BF0E
:101DDC000C0000202DE9F0478E6882469E420C468E
:101DEC0090461F4638D88A8912F4906F32D02568F5
:101DFC0009690133A5EB010965694B4405EB450500
:101E0C0005EBD5756D109D4238BF1D46530531D578
:101E1C00294600F06FFB064650B90C234FF0FF30FB
:101E2C00CAF80030A38943F04003A381BDE8F087D2
:101E3C004A46216900F0CEFAA38923F4906343F05B
:101E4C008003A38126614E4426603E466561A5EB66
:101E5C000905A560BE4200D93E463246414620687F
:101E6C0000F0C6FAA36800209B1BA36023683344D0
:101E7C002360DBE72A4600F0B1FB06460028E1D1DF
:101E8C005046216900F0CEFAC7E700002DE9F04F6B
:101E9C0098468B8907461B060D4614469DB00ED5F9
:101EAC000B6963B9402100F025FB2860286120B93B
:101EBC000C233B604FF0FF30D1E040236B610023DB
:101ECC00099320238DF8293030234FF00109CDF8E8
:101EDC000C80DFF8A4818DF82A3023469A4613F83B
:101EEC00012B0AB1252AF9D1BAEB040B0BD05B46B6
:101EFC00224629463846FFF76DFF013000F0AA80D4
:101F0C00099A5A4409929AF80030002B00F0A280EA
:101F1C0000234FF0FF32CDE905230AF1010A0493A7
:101F2C0007938DF853301A935446052214F8011B6D
:101F3C00514800F041FA049AD8B9D00644BF202386
:101F4C008DF85330110744BF2B238DF853309AF87A
:101F5C0000302A2B15D0544600204FF00A0C079A5B
:101F6C00214611F8013B303B092B4ED9B0B10792F9
:101F7C0014E0A0EB080309FA03F31343A2460493FD
:101F8C00D2E7039B191D1B680391002BBBBF5B425F
:101F9C0042F0020207930793B8BF049223782E2BCA
:101FAC000CD163782A2B35D1039B02341A1D1B6884
:101FBC000392002BB8BF4FF0FF330593DFF8BCA0A2
:101FCC0003225046217800F0F7F940B14023A0EBF2
:101FDC000A0003FA00F0049B01340343049314F841
:101FEC00011B062226488DF8281000F0E5F9002880
:101FFC0038D0244B1BBB039B073323F00703083358
:10200C000393099B3344099367E70C4601200CFBAF
:10201C000232A5E700234FF00A0C19460134059350
:10202C00204610F8012B303A092A03D9002BC5D0D1
:10203C000591C3E7044601230CFB0121F0E703AB38
:10204C0000932A463846104B04A9AFF30080421C7B
:10205C000646D6D1AB895B063FF52CAF09981DB06F
:10206C00BDE8F08F03AB00932A463846064B04A913
:10207C0000F07CF8EBE700BF7D2700088327000801
:10208C008727000800000000E11D00082DE9F0473B
:10209C00164699468A680B6907469342B8BF1346A1
:1020AC00336091F843200C46DDF820800AB10133EF
:1020BC0033602368990642BF336802333360256866
:1020CC0015F0060506D104F1190AE36832689B1A6B
:1020DC00AB4228DC94F84320131E226818BF01235E
:1020EC0092062DD44946384604F14302C0470130CC
:1020FC0020D02368E56803F00603042B18BF0025E5
:10210C0032684FF00006A36808BFAD1A226908BFF9
:10211C0025EAE5759342C4BF9B1AED181A34B542F3
:10212C001AD1002008E00123524649463846C047E0
:10213C00013003D14FF0FF30BDE8F0870135C4E723
:10214C003020E11881F843005A1C94F845102244C1
:10215C00023382F84310C5E701232246494638462C
:10216C00C0470130E6D00136D9E700002DE9FF4722
:10217C000F7E9146782F80460C469A460C9D01F1B5
:10218C00430207D8622F0AD8002F00F0D980582FAD
:10219C0000F0A48004F1420584F842703AE0A7F103
:1021AC006303152BF6D801A151F823F01122000876
:1021BC0025220008A1210008A1210008A121000866
:1021CC00A121000825220008A1210008A121000856
:1021DC00A1210008A1210008332300085522000882
:1021EC0015230008A1210008A1210008552300088F
:1021FC00A121000855220008A1210008A1210008F6
:10220C001D2300082B681A1D1B682A6004F1420567
:10221C0084F842300123A4E020682968060601F105
:10222C0004030AD50E682B60002E03DA2D237642A8
:10223C0084F843300A235E4819E00E6810F0400F12
:10224C002B6018BF36B2EFE72B682068191D296088
:10225C00010601D51E6802E04606FBD51E886F2FCD
:10226C000CBF08230A235248002184F843106568E8
:10227C00002DA8BF2168A560A4BF21F00401216036
:10228C000EB9002D4DD01546B6FBF3F103FB1167CB
:10229C00C75D05F8017D3746BB420E46F4D9082BC5
:1022AC000BD12368DE0708D5236961689942DEBF2C
:1022BC00302305F8013C05F1FF35521B22614B46DA
:1022CC0021464046CDF800A003AAFFF7DFFE0130FF
:1022DC004CD14FF0FF3004B0BDE8F087344881F8A2
:1022EC0045702968236851F8046B29601D0614D5C4
:1022FC00DF0744BF43F0200323601EB9236823F09B
:10230C00200323601023AFE7236843F020032360EE
:10231C007823284884F84530E3E7590648BFB6B21D
:10232C00E6E71546BBE72B682668181D616928602F
:10233C0035061B6801D5196002E07006FBD51980C3
:10234C00002315462361BAE72B6800211A1D2A6069
:10235C001D686268284600F02FF808B1401B6060C9
:10236C0063682361002384F84330A8E72A46494672
:10237C0040462369D0470130ABD023689B0713D468
:10238C00E068039B9842B8BF1846A4E70123324685
:10239C0049464046D04701309BD00135E36803994C
:1023AC005B1AAB42F2DCEBE7002504F11906F5E70A
:1023BC008E2700089F270008034610B5C9B20244B7
:1023CC009342184601D1002003E0047801338C427B
:1023DC00F6D110BD0A44914200F1FF3300D1704791
:1023EC0010B511F8014B914203F8014FF9D110BD12
:1023FC00884210B501EB020402D98442234607D867
:10240C00431EA14208D011F8012B03F8012FF8E765
:10241C00014602448A4200D110BD13F8014D02F866
:10242C00014DF7E738B50546002940D051F8043C7A
:10243C000C1F002BB8BFE41800F010F91C4A1368ED
:10244C0033B9636014602846BDE8384000F00CB91D
:10245C00A34208D9206821188B4201BF19685B6818
:10246C0009182160EDE71A465B680BB1A342FAD953
:10247C0011685018A0420BD12068014450188342B7
:10248C001160E0D118685B68014411605360DAE7B1
:10249C0002D90C232B60D6E7206821188B4201BF90
:1024AC0019685B680918216063605460CBE738BD1C
:1024BC003801002070B50E4E0C463168054611B936
:1024CC0000F0BCF830602146284600F0B7F8431CF9
:1024DC000AD0C41C24F00304A04207D0211A2846B9
:1024EC0000F0ACF8013001D14FF0FF34204670BD44
:1024FC003C0100202DE9F041CD1C25F003050835E9
:10250C000C2D38BF0C25002D074601DBA94205D93F
:10251C000C2300263B603046BDE8F0812E4E00F0C7
:10252C009DF833681C4634BB29463846FFF7C2FF7A
:10253C00431C04464DD134682646002E40D12368F6
:10254C003146384604EB030800F078F880453AD160
:10255C00216803356D1A25F0030508350C2D38BF9D
:10256C000C2538462946FFF7A5FF01302BD02368F0
:10257C002B4423600EE02268521B1ED40B2A16D962
:10258C006119A342256018BF5960636808BF3160A8
:10259C0062514B60384604F10B0600F065F826F0EA
:1025AC000706231DF21AB6D09B1BA350B3E7626833
:1025BC00A3420CBF32605A60ECE723466468B2E772
:1025CC0034467668B9E70C2338463B6000F04CF88B
:1025DC00A1E72560DEE700BF380100202DE9F041BE
:1025EC00804614460E4621B91146BDE8F041FFF76E
:1025FC0081BF2AB9FFF716FF25462846BDE8F081B2
:10260C0000F038F88442074602D8B4EB500F12D8C9
:10261C0021464046FFF76EFF05460028EDD0BC4230
:10262C002246314628BF3A46FFF7D4FE3146404693
:10263C00FFF7F8FEE1E73546DFE7000038B5002389
:10264C00054D044608462B6000F01EF8431C02D1D1
:10265C002B6803B1236038BD40010020014800F015
:10266C0011B800BF44010020014800F00CB800BFB5
:10267C004401002051F8043C181F002BBCBF0B5820
:10268C00C018704770477047044A05491368002BFF
:10269C0008BF0B46184410601846704748010020CC
:1026AC0050010020F8B500BFF8BC08BC9E4670472E
:0C26BC00F8B500BFF8BC08BC9E46704793
:1026C8004E524632344C30313A257300776F726F70
:1026D8006E67207772706E670D0A00004E524632A0
:1026E800344C30312020776F726B696E670D0A00A9
:1026F80072656365697665696E673A0D0A00000060
:10270800636F6E6E656374696F6E2077696C6C2099
:10271800626520637574210A000000006F70656EA1
:102728002074686520646F6F720A0000636C6F73B1
:10273800652074686520646F6F720A0000000000ED
:102748000000000001020304060708090000000059
:1027580001020304A5A5A5A5A50000003443101097
:102768000100000002030405060708090A0B0C0D06
:102778000E0F101000232D302B2000686C4C0065C4
:102788006667454647003031323334353637383995
:1027980041424344454600303132333435363738C8
:0827A80039616263646566009B
:0427B00031010008EB
:0427B4000D0100080B
:1027B8000024F400010000001000000010000020B8
:1027C8000000000000000000000000000000000001
:1027D80000000000000000000000000000000000F1
:1027E80000000000000000000000000000000000E1
:1027F80000000000000000000000000000000000D1
:1028080000000000000000000000000000000000C0
:1028180000000000000000000000000000000000B0
:0400000508001CFDD6
:00000001FF
